:1010BB00D0C5D2E2B5E7D7D3BFC6BCBC002068749D
:1010CB0074703A2F2F7879647A3132332E74616FC2
:1010DB0062616F2E636F6D00C6C1C4BBB2E2CAD42E
:1010EB0000546573742046696E69736865642100EA
:071276001212B3120ECD228B
:0412B300120FC5222F
:100ECD007BFF7A1079BBE4FD7F19120A9D7BFF7AB7
:100EDD001079C87D02E4FF120E387FA07E0F12102C
:100EED0076E4FF1211397BFF7A1079E37D017F1EC5
:100EFD00120A9DE4F52AF52B7F287E00121076ABA1
:100F0D002B7D057F2D120D9D052BE52B7002052ADE
:100F1D00D39464E52A940040DF7FFF1211397F409E
:100F2D007E1F121076E4FF1211397FD07E0712104A
:100F3D00767BFF7A1079EC7D027F0A120E3880FEE7
:10107600E4FCFD7B0AFAF9F8120C5F8F2F8E2E8D99
:101086002D8C2CE4FFFEFDFCAB2FAA2EA92DA82C3F
:10109600D3120CAE401E7F6EDFFE74FF252FF52F98
:1010A600E52E34FFF52EE52D34FFF52DE52C34FF26
:0410B600F52C80CFC6
:0110BA002213
:100003000000000000000000002F000000000700B7
:10001300070000147F147F1400242A7F2A12006231
:1000230064081323003649552250000005030000DD
:1000330000001C224100000041221C000014083E65
:1000430008140008083E0808000000A0600000082B
:10005300080808080000606000000020100804027F
:10006300003E5149453E0000427F4000004261513D
:100073004946002141454B31001814127F100027D7
:1000830045454539003C4A4949300001710905039A
:1000930000364949493600064949291E00003636CB
:1000A300000000005636000000081422410000142E
:1000B300141414140000412214080002015109060B
:1000C30000324959513E007C1211127C007F49498C
:1000D3004936003E41414122007F4141221C007FBD
:1000E30049494941007F09090901003E4149497ACB
:1000F300007F0808087F0000417F41000020404145
:100103003F01007F08142241007F40404040007FB0
:10011300020C027F007F0408107F003E4141413EF4
:10012300007F09090906003E4151215E007F09193C
:1001330029460046494949310001017F0101003F39
:100143004040403F001F2040201F003F4038403FB9
:10015300006314081463000708700807006151491D
:10016300454300007F4141000002040810200000C5
:1001730041417F000004020102040040404040402E
:10018300000001020400002054545478007F4844C6
:10019300443800384444442000384444487F0038FD
:1001A3005454541800087E0901020018A4A4A47C26
:1001B300007F080404780000447D400000408084F0
:1001C3007D00007F102844000000417F4000007C38
:1001D30004180478007C0804047800384444443844
:1001E30000FC242424180018242418FC007C080490
:1001F300040800485454542000043F444020003C69
:100203004040207C001C2040201C003C4030403CEF
:10021300004428102844001CA0A0A07C004464547F
:100223004C44141414141414D0C5D2E2B5E7D7D334
:10023300BFC6BCBCC6C1C4BBB2E2CAD4000080E026
:100243001C121050524C505030080001007F000027
:10025300017D454545457C0000002020A8A8B8A69F
:10026300A8B868A82020000040300F76464E5646B6
:1002730076171060000000F0909090FE909090F040
:1002830010000000000F0808087F4848484F5060DE
:100293000000000404040404E4140C04848000003B
:1002A3000001010141413F0101010000000000483C
:1002B300FC444200883000FE020000000C027F0173
:1002C3000108080504FF040200000020FE2090201E
:1002D3002020FE20A010000002417F818041472999
:1002E30018274140000000FE14143454149474146D
:1002F3009C000000300F8848390F09087F09040467
:1003030000000404F454CE54544E4CF4040400008E
:10031300080A3E0A097E0A0A7A0E0A090000200426
:1003230080FC04F404FC00F0FC000000007F402784
:1003330018071067004FFF000000808898202020D6
:1003430020A0FE242C100000001F601028211F1085
:10035300131C2070000000000000000000000000DB
:100363000000000000000000F80000000000000092
:10037300333000000000100C06100C0600000000D3
:10038300000000000040C07840C0784000043F04F3
:10039300043F040400007088FC08300000001820AB
:1003A300FF211E0000F008F000E018000000211CEF
:1003B300031E211E0000F00888700000001E212388
:1003C300241927211010160E000000000000000061
:1003D3000000000000000000E0180402000000001C
:1003E300071820400000020418E00000000040202D
:1003F3001807000000404080F080404000020201E6
:100403000F01020200000000F000000000010101E2
:100413001F01010100000000000000000080B07017
:1004230000000000000000000000000000000101C7
:100433000101010101000000000000000000303054
:100443000000000000000000008060180400601835
:10045300060100000000E010080810E000000F1083
:100463002020100F00001010F800000000002020D2
:100473003F20200000007008080888700000302822
:1004830024222130000030088888483000001820DA
:100493002020110E000000C02010F8000000070407
:1004A30024243F240000F808888808080000192144
:1004B3002020110E0000E0108888180000000F11A2
:1004C3002020110E0000380808C83808000000007A
:1004D3003F000000000070880808887000001C229C
:1004E3002121221C0000E010080810E00000003168
:1004F3002222110F00000000C0C000000000000015
:100503003030000000000000800000000000008088
:10051300600000000000008040201008000001027D
:1005230004081020004040404040404000040404C0
:100533000404040400000810204080000000201080
:100543000804020100007048080808F000000000D9
:100553003036010000C030C828E810E00007182733
:100563002423140B000000C038E0000000203C23CB
:10057300020227382008F8888888700000203F206E
:100583002020110E00C03008080808380007182082
:10059300202010080008F808080810E000203F2079
:1005A3002020100F0008F88888E8081000203F205A
:1005B300202320180008F88888E8081000203F202E
:1005C3000003000000C030080808380000071820A6
:1005D30020221E020008F808000008F808203F2126
:1005E3000101213F20000808F8080800000020202E
:1005F3003F2020000000000808F8080800C08080A1
:10060300807F00000008F888C028180800203F20D9
:10061300012638200008F8080000000000203F20D1
:10062300202020300008F8F800F8F80800203F00E8
:100633003F003F200008F830C00008F808203F20A2
:100643000007183F00E01008080810E0000F102012
:100653002020100F0008F808080808F000203F21A8
:100663000101010000E01008080810E0000F182441
:100673002438504F0008F8888888887000203F206D
:1006830000030C3020007088080808380000382068
:100693002121221C00180808F8080818000000206F
:1006A3003F2000000008F808000008F808001F2099
:1006B3002020201F000878880000C83808000007A1
:1006C300380E010000F80800F80008F800033C07A2
:1006D30000073C0300081868808068180820302C45
:1006E30003032C30200838C800C838080000002055
:1006F3003F2000000010080808C8380800203826EA
:100703002120201800000000FE0202020000000069
:100713007F40404000000C30C0000000000000009B
:10072300010638C00000020202FE00000000404043
:10073300407F0000000000040202020400000000E9
:100743000000000000000000000000000080808026
:10075300808080808000020204000000000000000E
:100763000000000000000080808080000000192449
:100773002222223F2008F8008080000000003F1161
:100783002020110E000000008080800000000E1168
:100793002020201100000000808088F800000E1146
:1007A3002020103F200000808080800000001F2256
:1007B3002222221300008080F088888818002020DD
:1007C3003F202000000000808080808000006B9428
:1007D300949493600008F8008080800000203F21FB
:1007E3000000203F20008098980000000000202097
:1007F3003F20200000000000809898000000C08087
:1008030080807F000008F8000080808000203F2463
:10081300022D302000000808F8000000000020200E
:100823003F202000008080808080808000203F2047
:10083300003F20003F8080008080800000203F2117
:100843000000203F200000808080800000001F20E7
:100853002020201F00808000808000000080FFA1F6
:100863002020110E000000008080808000000E1107
:100873002020A0FF80808080008080800020203F97
:10088300212000010000008080808080000033244C
:100893002424241900008080E080800000000000F0
:1008A3001F202000008080000000808000001F20A7
:1008B3002020103F20808080000080808000010E77
:1008C300300806010080800080008080800F300C9B
:1008D300030C300F000080800080808000002031F6
:1008E3002E0E312000808080000080808080818EE9
:1008F3007018060100008080808080800000213015
:100903002C2221300000000000807C020200000045
:1009130000003F404000000000FF00000000000016
:1009230000FF0000000002027C8000000000404045
:100933003F00000000000601010202040400000061
:050943000000000000AF
:1010FB0075F006EBA42403F582E5F03400F583E5E7
:0C110B00822CF582E43583F583E493FF29
:101117007E08D293C290AD061EED6015EF30E7044E
:10112700D2918002C291D29000C290EF25E0FF8059
:01113700E5D2
:011138002294
:10115E007E08C293C290AD061EED6015EF30E70417
:10116E00D2918002C291D29000C290EF25E0FF8012
:01117E00E58B
:01117F00224D
:06118000E52D04FDAF2C7B
:10118600AC07ED24B0FF12115EEC54F0C4540F44CA
:0C11960010FF12115EEC540FFF02115EFE
:02113900AC0701
:10113B00E4FBEB24B0FF12115EE4FF12115E7F1093
:10114B0012115EE4FAAF041211170ABA80F70BBB47
:02115B0008E0AA
:01115D00226F
:1011C100AC07EC540FFF12115EECC4540F2410FF56
:0311D10002115EAA
:0C121600AC077F2012115EAF0402115ED5
:1011D400AC05AB077F2112115EAF0312115EAF04A1
:0311E40002115E97
:1011E700AC05AB077F2212115EAF0312115EAF048D
:0311F70002115E84
:07127D00EF4440FF02115E87
:0C122200AC077F8112115EAF0402115E68
:0E11FA00AC077F8D12115EEC4410FF02115EF7
:07128400EF44A0FF02115E20
:07128B00EF44A4FF02115E15
:07129200EF44A6FF02115E0C
:0C122E00AC077FA812115EAF0402115E35
:07129900EF44AEFF02115EFD
:0712A000EF44B0FF02115EF4
:0712A700EF44C0FF02115EDD
:0C123A00AC077FD312115EAF0402115EFE
:0C124600AC077FD512115EAF0402115EF0
:0C125200AC077FD912115EAF0402115EE0
:0E120800AC077FDA12115EEC4402FF02115EA9
:0C125E00AC077FDB12115EAF0402115ED2
:0512AE007FE302115E68
:100FC500D290C292E4FF000FBF64FBD292E4FF12FD
:100FD50012997F801212467F3F12122EE4FF1212E1
:100FE5003AE4FF12127D7F041211FA7F02121216E3
:100FF5007F011212847F081212A77F101212087F38
:10100500CF1212227FF11212527F4012125EE4FFBC
:1010150012128BE4FF1212927F01121299E4FF1251
:081025001139E4FDFF121186F0
:01102D0022A0
:0511A2002430FBAD1D2F
:1011A700EB24E0FBEFD3947A4003E4FF0D121186A2
:0911B700E4FC1210FB0CBC06F96B
:0111C000220C
:0A102E008F3E8D3F8B408A418942BE
:10103800E4F543AB40AA41A9428543827583001277
:101048000BCB602924E0FBE53ED3947A4005E4F518
:101058003E053FAD3FAF3E121186E4FC1210FB0C7B
:0D106800BC06F97406253EF53E054380C622
:011075002258
:0A0E38008F2C8D2D8B2E8A2F893010
:100E4200E52D25E0F52DE4F531AB2EAA2FA930854D
:100E52003182758300120BCB607024E0FBE52CD34A
:100E620094784007E4F52C052D052DAD2DAF2C12FD
:100E72001186E4FCEB75F010A4FFEC7583002FFFE4
:100E8200E58335F0FE74582FF58274033E12111279
:100E92000CBC08E0E52D04FDAF2C121186E4FCEB3E
:100EA20075F010A4FFEC7583002FFFE58335F0FE8B
:100EB20074602FF58274033E1211120CBC08E074A8
:0A0EC20008252CF52C0531020E4B1B
:010ECC002203
:0A0A9D008F2C8D2D8B2E8A2F8930AF
:100AA700E52D25E0F52DE4F532AB2EAA2FA93085EB
:100AB7003282758300120BCB7003020BB1E4F53160
:100AC700F533753401E53190022B93FFD3947F40C2
:100AD7003AAB2EAA2FA930853282758300120BCB31
:100AE700FEEF6E7020853282F583A3120BCBFFE5F4
:100AF7003190022C93B5070DE53175F00EA485F002
:100B070033F53480060531053180BAE52CD394726C
:100B17004007E4F52C052D052DE5346401453360C8
:100B270052AD2DAF2C121186E4F53174402534F502
:100B370082740235331211120534E534700205331D
:100B47000531E531C3940E40E2121180E4F53174AA
:100B5700402534F582740235331211120534E53419
:100B6700700205330531E531C3940E40E2053205C5
:100B770032802EAD2DAF2C121186E4F531E4FF1231
:100B870011170531E531C3940E40F2121180E4F5D7
:100B970031E4FF1211170531E531C3940E40F20518
:0A0BA70032740E252CF52C020AB062
:010BB1002221
:0A0F4D008F358D368B378A388939CD
:100F5700E4F53DAB37AA38A939853D827583001280
:100F67000BCBFF6058D3947F40298F3A853D82751C
:100F77008300A3120BCBF53BE4F53CFB7A00793AEF
:100F8700AD36AF35120A9D740E2535F535053D058D
:100F97003D80C0AB37AA38A939853D8275830012D9
:100FA7000BCBF53AE4F53BFB7A00793AAD36AF3532
:0D0FB700120E3874082535F535053D80967D
:010FC400220A
:060D9D008F2CAA05A9033A
:100DA300C3E96480948050137B2D1211A7E9FF33AC
:100DB30095E0FEC3E49FFFE49E800FAD027B2BAF63
:100DC3002C1211A7AF01EF3395E0F5318F32AE311D
:100DD300AF327C007D64120C0A8F82AE31AF327C5D
:100DE300007D64120C0A7E007F0ACFCDCFCECCCE1D
:100DF300120C0A8E2D8F2EAE31AF327C007D0A127B
:100E03000C0A8C2F8D30E52C2406FFAD02AE82EE4A
:100E13002430FB1211A7E52C240CFFAD02E52E2490
:100E230030FB1211A7E52C2412FFAD02E53024306C
:040E3300FB1211A7F6
:010E37002298
:080CC4008F1C8D1D8A1E8B1F81
:100CCC00C3E51E6480948050137B2D1211A7C3E4DE
:100CDC00951FFFE4951EF5288F29800F7B2BAD1DEA
:100CEC00AF1C1211A7851E28851F29AE28AF297CA1
:100CFC00277D10120C0AAB07AA06AE28AF297C2759
:100D0C007D10120C0A7E037FE8CFCDCFCECCCE1255
:100D1C000C0A8E268F27AE28AF297C037DE8120C97
:100D2C000A7E007F64CFCDCFCECCCE120C0A8E20A3
:100D3C008F21AE28AF297C007D64120C0A7E007FC7
:100D4C000ACFCDCFCECCCE120C0A8E228F23AE285A
:100D5C00AF297C007D0A120C0A8C248D25E51C24FD
:100D6C0006FFAE03EE1211A2E51C240CFFE52712C0
:100D7C0011A2E51C2412FFE5211211A2E51C241876
:100D8C00FFE5231211A2E51C241EFFE5251211A27A
:010D9C002234
:060948008B088A09890AF0
:10094E00EDAE047803CEC313CE13D8F9F5178E1679
:10095E00751800ED5407F519E4F510F511C3E511FE
:10096E009517E51095164003020A05AD11E4FF1226
:10097E001186E511AE107803C333CE33CED8F9F518
:10098E001B8E1AE4F512F513C3E513950EE51295B9
:10099E000D5056E4F50FF514F515E50FC313F50FCD
:1009AE00E51B2515FFE51A3514FEAC0DAD0E120B29
:1009BE00F8AB08E50A2FF9E5093EFAE92513F9EA3D
:1009CE003512FA120BB2B40103430F800515E5156B
:1009DE00700205146408451470C0AF0F121117058C
:1009EE0013E51370A30512809F0511E51160030234
:1009FE00096B051002096BAD11E4FF121186E511AA
:100A0E00AE107803C333CE33CED8F9F51B8E1AE46D
:100A1E00F512F513C3E513950EE512950D506FE41F
:100A2E00F50FF514F515C3E5159519E51495185040
:100A3E003CE50FC313F50FE51B2515FFE51A35141D
:100A4E00FEAC0DAD0E120BF8AB08E50A2FF9E50959
:100A5E003EFAE92513F9EA3512FA120BB2B4010384
:100A6E00430F800515E51570BD051480B9C37408D4
:100A7E009519FFE50FA807088002C313D8FCF50FE0
:0E0A8E00FF1211170513E513708A05128086FA
:010A9C002237
:0300000002126A7F
:0C126A00787FE4F6D8FD7581430212760F
:100BB200BB010689828A83E0225002E722BBFE0241
:090BC200E32289828A83E4932274
:100BCB00BB010CE58229F582E5833AF583E02250DF
:100BDB0006E92582F8E622BBFE06E92582F8E22229
:0D0BEB00E58229F582E5833AF583E4932243
:100BF800EF8DF0A4A8F0CF8CF0A428CE8DF0A42E11
:020C0800FE22CA
:100C0A00BC000BBE0029EF8DF084FFADF022E4CCCE
:100C1A00F875F008EF2FFFEE33FEEC33FCEE9DEC97
:100C2A00984005FCEE9DFE0FD5F0E9E4CEFD22EDDD
:100C3A00F8F5F0EE8420D21CFEADF075F008EF2F27
:100C4A00FFED33FD4007985006D5F0F222C398FD18
:050C5A000FD5F0EA22B5
:100C5F00E88FF0A4CC8BF0A42CFCE98EF0A42CFC34
:100C6F008AF0EDA42CFCEA8EF0A4CDA8F08BF0A4B2
:100C7F002DCC3825F0FDE98FF0A42CCD35F0FCEB11
:100C8F008EF0A4FEA9F0EB8FF0A4CFC5F02ECD39D6
:0F0C9F00FEE43CFCEAA42DCE35F0FDE43CFC2243
:100CAE00EB9FF5F0EA9E42F0E99D42F0EC6480C8BD
:060CBE0064809845F0225D
:00000001FF
