:020000040800F2
:1000000000040020E3010008ED0F0008EF0F0008D6
:10001000F30F0008F70F0008FB0F000800000000B6
:10002000000000000000000000000000FF0F0008BA
:10003000011000080000000003100008051000086F
:10004000030200080302000803020008030200087C
:10005000030200080302000803020008030200086C
:10006000030200080302000803020008030200085C
:10007000030200080302000803020008030200084C
:10008000030200080302000803020008030200083C
:10009000030200080302000803020008030200082C
:1000A000030200080302000803020008030200081C
:1000B000030200080302000803020008030200080C
:1000C00003020008030200080302000803020008FC
:1000D00003020008030200080302000803020008EC
:1000E00003020008030200080302000803020008DC
:1000F00003020008030200080302000803020008CC
:1001000003020008030200080302000803020008BB
:1001100003020008030200080302000803020008AB
:10012000030200080302000803020008030200089B
:1001300000F002F800F044F80AA090E8000C8244B5
:100140008344AAF10107DA4501D100F039F8AFF292
:10015000090EBAE80F0013F0010F18BFFB1A43F0A5
:1001600001031847341D0000541D0000103A24BF3D
:1001700078C878C1FAD8520724BF30C830C144BF0C
:1001800004680C607047000000230024002500264E
:10019000103A28BF78C1FBD8520728BF30C148BFEA
:1001A0000B6070471FB501F06AFE9DE8030001F087
:1001B00025FC01F0EFF81FBD10B501F054F910BD9A
:1001C00001F0B7F91146FFF7EDFF00F0CFFE01F0A7
:1001D000BFFB03B4FFF7F0FF03BC01F0A1FD00007B
:1001E00070470B4880470B4981F308880A4800474D
:1001F000FEE7FEE7FEE7FEE7FEE7FEE7FEE7FEE7D7
:10020000FEE7FEE705480649044A064B7047000032
:10021000E101000870030020310100087001002096
:10022000700300207001002010B50446C549601A13
:100230008C422FD009DCC448201810D0B0F5806F54
:1002400016D0B0F5006F4AD11BE0B0F5806F2AD010
:10025000B0F5006F30D0B0F5406F40D135E00121EE
:10026000042000F0F7FA0021042000F0F3FA37E050
:100270000121082000F0EEFA0021082000F0EAFA3F
:100280002EE00121102000F0E5FA0021102000F0FE
:10029000E1FA25E00121202000F0DCFA00212020F5
:1002A00000F0D8FA1CE00121402000F0D3FA002130
:1002B000402000F0CFFA13E00121802000F0CAFABC
:1002C0000021802000F0C6FA0AE00121080200F0B7
:1002D000C1FA00214FF4807000F0BCFA00E000BFCA
:1002E00000BF10BD10B50121084600F0B3FA00218F
:1002F000012000F0AFFA10BD2DE9F04102460025C3
:100300000026002000230024002791F803C00CF0F1
:100310000F0591F803C01CF0100F03D091F802C034
:100320004CEA0505B1F800C01CF0FF0F31D014688D
:1003300000202BE04FF0010C0CFA00F3B1F800C0E4
:100340000CEA03069E4220D183004FF00F0C0CFAFA
:1003500003F7BC4305FA03FC4CEA040491F803C01C
:10036000BCF1280F06D14FF0010C0CFA00FCC2F8CA
:1003700014C00AE091F803C0BCF1480F05D14FF05A
:10038000010C0CFA00FCC2F810C0401C0828D1D3A4
:100390001460B1F800C0BCF1FF0F34DD54680020D8
:1003A0002EE000F1080C4FF0010808FA0CF3B1F848
:1003B00000C00CEA03069E4221D183004FF00F0CCF
:1003C0000CFA03F7BC4305FA03FC4CEA040491F869
:1003D00003C0BCF1280F05D100F1080C08FA0CF895
:1003E000C2F8148091F803C0BCF1480F07D100F1A6
:1003F000080C4FF0010808FA0CF8C2F81080401CF5
:100400000828CED35460BDE8F0814FF6FF7101801B
:10041000022181700421C170704702460020936858
:100420000B4201D0012000E000207047014688689F
:1004300080B2704702460020D3680B4201D00120F1
:1004400000E0002070470146C86880B27047016133
:100450007047416170470AB1016100E04161704736
:10046000C16070474FF480320A43826181618261CA
:1004700082698269704702460020344B18684FF643
:100480008073184040EA02100843304B18607047F0
:100490002F49C8617047F0B50A46002300240021A7
:1004A00000252A4E7168C0F3034583B200F440165C
:1004B000B6F5401F08D121F07061244E766826F011
:1004C0007066224F7E6012E000F48016B6F5801F41
:1004D00006D1032606FA05F4A14341F0706106E057
:1004E000460D360103FA06F6B14341F0706122B1C0
:1004F000460D360103FA06F63143144E7160F0BD25
:1005000030B500228B071C0F0F2303FA04F20F4BA8
:1005100008338C1053F8243093430C4C08348D105E
:1005200044F8253023468C1053F824308C07240FD0
:1005300000FA04F42343054C08348D1044F82530A8
:1005400030BD00000014014000F8FEBF0000014073
:1005500000002042DB48006840F00100D9490860F3
:1005600008464068D8490840D649486008460068AF
:10057000D6490840D34908600846006820F4802026
:1005800008600846406820F4FE004860002088604B
:100590007047CC49096821F48031CA4A116011467C
:1005A000096821F480211160B0F5803F03D0B0F5D7
:1005B000802F0ED106E0C349096841F48031C14A59
:1005C000116007E0BF49096841F4A021BD4A1160EC
:1005D00000E000BF00BF704710B5014600220023B5
:1005E00000204A11012A02D1B64C236806E0022AF3
:1005F00002D1B44C236A01E0B24C636A01F01F02DD
:10060000012494401C4201D0012000E0002010BDD4
:1006100070B500240025002600BF3120FFF7DCFF65
:100620000646641C16B9B4F5A06FF6D13120FFF769
:10063000D3FF08B1012500E00025284670BD014622
:100640000020A04A106820F0F80040EAC1001060C5
:1006500070479F490860704702460020994B5868D0
:1006600020F47C1042EA01031843964B586070470F
:1006700097490866704701460020924A506820F06A
:1006800003000843506070478E48406800F00C003B
:100690007047014600208B4A506820F0F000084364
:1006A0005060704701460020864A506820F4E060A0
:1006B00008435060704701460020824A506820F489
:1006C000605040EAC1005060704729B17D4A527ABB
:1006D00002437C4B5A7206E07A4A527AC343DBB239
:1006E0001A40784B5A7270477A4908607047014641
:1006F0000020744A506820F440400843506070471E
:100700000021754A11706F4A82F82010012802D02A
:10071000042808D103E001216F4A117004E005218B
:100720006D4A117000E000BF00BF70476B49086060
:1007300070476449096A0143624A11627047674918
:1007400044390860704730B500210022002400239E
:100750005C4D6D6805F00C0121B1042905D0082914
:1007600023D105E05E4D056022E05D4D05601FE090
:10077000544D6D6805F47012022505EB9242514DFF
:100780006D6805F480341CB9564D554305600BE087
:100790004C4D6D6815F4003F03D0524D5543056034
:1007A00002E04F4D5543056002E04D4D056000BF2E
:1007B00000BF444D6D6805F0F00109094A4D6B5CBE
:1007C0000568DD4045603F4D6D6805F4E061090A4C
:1007D000454D6B5C4568DD4085603A4D6D6805F4BC
:1007E0006051C90A404D6B5C4568DD40C560354DC0
:1007F0006D6805F44041890B3C4D6B5CC568B5FBE9
:10080000F3F5056130BD29B12E4A526902432D4BE3
:100810005A6104E02B4A526982432A4B5A6170475D
:1008200029B1284A92690243264B9A6104E0254A7D
:1008300092698243234B9A61704729B1214AD26958
:100840000243204BDA6104E01E4AD26982431D4B09
:10085000DA61704729B11B4AD2680243194BDA604A
:1008600004E0184AD2688243164BDA60704729B117
:10087000144A12690243134B1A6104E0114A1269C7
:100880008243104B1A617047144940390860704721
:100890000F49C86470470B49C87170470948406ADE
:1008A00040F0807007494862704701460020054AC1
:1008B00092680A4201D0012000E0002070470149FF
:1008C00088727047001002400000FFF8FFFFF6FE3C
:1008D00000004242D80042422010024080044242BE
:1008E00000127A0000093D000000002010000020E6
:1008F00010B50446BE4820180FD0B0F5806F16D052
:10090000B0F5784F1DD101210803FFF7A3FF0021A7
:100910004FF48050FFF79EFF14E001218803FFF79A
:10092000A6FF00214FF48040FFF7A1FF0AE001215C
:10093000C803FFF79CFF00214FF40040FFF797FF2B
:1009400000E000BF00BF10BD10B50022028802F415
:1009500041520B884C8823438C882343CC88234303
:100960000C8923434C8923438C892343CC8923431B
:100970001A430280838B4FF2FF74234083830B8AD8
:10098000038210BD2DE9F04786B005460C464FF0B6
:10099000000902274FF000084FF0010A0026A88B3B
:1009A0004FF240010840A88302202884B5F81C902B
:1009B0002089022801D100BF2FE0A08810B94FF094
:1009C000010A01E04FF0020A01A8FFF7BCFEE0882F
:1009D000B0F5007F0AD1019800EB8000400021892A
:1009E0000902B0FBF1F0401D86B20BE04FEA4A105D
:1009F00021894843019901EB81014900B1FBF0F0E5
:100A0000401D86B20A20B6FBF0F606F00108A6EB00
:100A10000800C0F34F074FEA0828022F01DBFF2F21
:100A200002DD02274FF0000847EA0800E18808438A
:100A30002884208840F4006061880843A188084326
:100A40006189084340EA0909A5F81C9006B0BDE891
:100A5000F0870021018041808180C1800181418136
:100A60008181C1810721018270470021018041807D
:100A70008180C1800221018100214181704721B123
:100A8000028842F04002028004E002884FF6BF7301
:100A90001A400280704721B1828B42F480628283C7
:100AA00004E0828B4FF6FF331A408283704770B5A3
:100AB000002400230C110125A540ABB21AB1858892
:100AC0001D43858004E08588DE43B6B235408580CD
:100AD00070BD10B51AB183880B43838004E083880E
:100AE000CC43A4B22340838010BD8181704701466E
:100AF00088897047A1F57E42FF3A04D0028842F40B
:100B00008072028004E002884FF6FF631A40028080
:100B1000704721B1828842F00402828004E082881A
:100B20004FF6FB731A408280704702884FF2FF73C2
:100B30001A40028002880A4302807047018841F40B
:100B400080510180704721B1028842F40052028036
:100B500004E002884DF6FF731A4002807047024697
:100B60000020012901D0108B00E0908A70470146D7
:100B7000088A7047B1F5804F04D1028842F4804260
:100B8000028004E002884BF6FF731A40028070472F
:100B90000246002013890B4201D0012000E0002012
:100BA0007047CA4302817047F0B502460020002416
:100BB0000023002501F00F070126BE40B4B20B113F
:100BC00001269E40B3B2968806EA0305168926429E
:100BD00002D00DB1012000E00020F0BD10B50022D0
:100BE00001F00F040123A3409AB2D343038110BD47
:100BF00000C8FFBF10B50446D949601A8C422BD0FB
:100C000006DCD848201813D0B0F5806F38D119E031
:100C1000B0F5806F2AD0B0F56C4F31D10121880337
:100C2000FFF718FE00214FF48040FFF713FE28E085
:100C300001214804FFF71BFE00214FF40030FFF7AD
:100C400016FE1EE001218804FFF711FE00214FF47B
:100C50008020FFF70CFE14E00121C804FFF707FE17
:100C600000214FF40020FFF702FE0AE001210805F1
:100C7000FFF7FDFD00214FF48010FFF7F8FD00E0C5
:100C800000BF00BF10BD2DE9F04786B005460E46F7
:100C90000024A24600BF00BF00272F462C8A4CF636
:100CA000FF700440F08804432C82AC894EF6F310A8
:100CB0000440B08831890843718908430443AC81FA
:100CC000AC8A4FF6FF400440B0890443AC8201A8CF
:100CD000FFF739FDA448874202D1DDF810A001E0FA
:100CE000DDF80CA00AEBCA0000EB0A10316889009D
:100CF000B0FBF1F86420B8FBF0F004012009642196
:100D000001FB1089322000EB0910B0FBF1F000F07C
:100D10000F0004432C8106B0BDE8F0874FF4165154
:100D2000016000218180C18001810C21418100216D
:100D30008181704710B502460020108A4FF2FF03F0
:100D400018400B884C8823438C882343CC8823434A
:100D50001843108210BD0021018041808180C18034
:100D6000704721B1828942F40052828104E0828975
:100D70004DF6FF731A4082817047F0B50346002498
:100D80000026002500201846C1F3421401F01F067A
:100D9000012707FA06F5012C01D10C3004E0022CE2
:100DA00001D1103000E014301AB107682F430760FA
:100DB00002E00768AF430760F0BD10B51AB1838A3F
:100DC0000B43838204E0838ACC43A4B22340838212
:100DD00010BD028A4FF6F0731A400282028A0A435B
:100DE0000282704782894FF2FF731A4082818289A2
:100DF0000A438281704721B1828942F002028281D6
:100E000004E082894FF6FD731A4082817047028A9E
:100E10004FF6DF731A400282028A0A430282704749
:100E200021B1028A42F48042028204E0028A4BF637
:100E3000FF731A4002827047C1F308028280704734
:100E400001468888C0F308007047818941F001019C
:100E500081817047028BD2B20283028B42EA012267
:100E600002837047028B02F47F420283028B0A43A3
:100E70000283704721B1828A42F02002828204E01C
:100E8000828A4FF6DF731A408282704721B1828ACC
:100E900042F01002828204E0828A4FF6EF731A4019
:100EA0008282704721B1828A42F00802828204E085
:100EB000828A4FF6F7731A4082827047828A4FF611
:100EC000FB731A408282828A0A438282704721B170
:100ED000828A42F00202828204E0828A4FF6FD7327
:100EE0001A40828270470246002013880B4201D0CC
:100EF000012000E000207047CA430280704770B5AF
:100F000002460B460024002100250020C3F34215B1
:100F100003F01F01012606FA01F1012D02D1968985
:100F2000314006E0022D02D1168A314001E0968A56
:100F300031401C12012606FA04F41688344011B11F
:100F40000CB1012000E0002070BD10B5002200238C
:100F50000A1201249440A3B2DC43048010BD0000B7
:100F6000004C004000BCFFBF0038014000F082F997
:100F700010211948FFF76BFA4FF4FA7000F07BF874
:100F800010211548FFF765FA4FF4FA7000F073F876
:100F900000F0C9F8FF2000F07AF815E0002000F01A
:100FA00076F810210C48FFF752FA4FF4FA7000F06F
:100FB00062F8AA2000F06BF810210748FFF749FA01
:100FC0004FF4FA7000F057F8E8E710B500F019F99F
:100FD00002A000F0A1F910BD0008014048656C6C4A
:100FE0006F2C20576F726C64210A0D00704700BF90
:100FF000FEE700BFFEE700BFFEE700BFFEE7704769
:10100000704770477047000010B5044600BF0221CA
:101010007048FFF7BDFD0028F9D021466D48FFF765
:1010200064FD10BD10B504464FF480716A48FFF7A7
:101030000EFA2046FFF7E8FF10BD10B504464FF446
:1010400080716548FFF705FA2046FFF7DDFF10BD08
:1010500070B504460D4605F00701B031C8B2FFF780
:10106000ECFF04F00F00FFF7E8FF102141EA141035
:10107000FFF7E3FF70BD07E040F2375100BF0A0001
:10108000A1F10101FBD1401E0028F5D1704770B5D8
:1010900006462020FFF7D1FF0020FFF7CEFF2120DA
:1010A000FFF7CBFF0020FFF7C8FF7F20FFF7C5FF4A
:1010B0002220FFF7C2FF0020FFF7BFFF0720FFF746
:1010C000BCFF0120FFF7D7FF00240AE0002504E061
:1010D0003046FFF7A7FF681CC5B2802DF8DB601C07
:1010E000C4B2082CF2DB70BD70B5002418E004F126
:1010F000B001C8B2FFF7A1FF0120FFF79EFF10204B
:10110000FFF79BFF002504E00020FFF78BFF681C22
:10111000C5B2802DF8DBC820FFF7ADFF601CC4B25C
:10112000082CE4DB70BD10B54FF400712A48FFF7BE
:1011300090F93220FFF79FFF4FF400712648FFF728
:1011400086F9AE20FFF779FFA820FFF776FF3F2052
:10115000FFF773FFD320FFF770FF0020FFF76DFF4D
:101160004020FFF76AFFA020FFF767FFC020FFF7CE
:1011700064FFDA20FFF761FF1220FFF75EFF812096
:10118000FFF75BFFCF20FFF758FFA420FFF755FFC5
:10119000A620FFF752FFD520FFF74FFF8020FFF773
:1011A0004CFF8D20FFF749FF1420FFF746FFAF20CB
:1011B000FFF743FFD920FFF740FFF820FFF73DFF7F
:1011C000DB20FFF73AFF4020FFF737FF0020FFF753
:1011D0005EFF10BD003001400008014008B501214C
:1011E0000420FFF71DFB1E20ADF8000010208DF835
:1011F000030003208DF8020069464448FFF77CF89D
:1012000008BD00B585B0012144F20400FFF708FBDA
:101210004FF48060ADF8100004208DF8130004A98D
:101220003A48FFF769F84FF40070ADF8100003205A
:101230008DF8120018208DF8130004A93348FFF729
:101240005BF84FF4E13000900020ADF80400ADF8F9
:101250000600ADF80800ADF80C000C20ADF80A004F
:1012600069462B48FFF70FFD01212948FFF779FD5B
:1012700005B000BD00B587B0012141F20400FFF7C1
:10128000CFFA01212348FFF744FCA020ADF8040069
:1012900018208DF8070003208DF8060001A91B48CF
:1012A000FFF72AF84FF44470ADF8040010208DF8D1
:1012B000070003208DF8060001A91448FFF71CF869
:1012C0000020ADF808004FF48270ADF80A0000204D
:1012D000ADF80C000220ADF80E000120ADF81000B2
:1012E0004002ADF812001820ADF814000020ADF84F
:1012F00016000720ADF8180002A90648FFF724FBE6
:1013000001210448FFF7BBFB07B000BD0008014006
:1013100000380140003001400FB4044910B503AA61
:10132000029800F009F810BC5DF814FB7000002072
:101330007047704770470000074B70B50C467B4400
:1013400000F011F80546204600F020F810B14FF0EB
:10135000FF3070BD284670BD230B000001694A1C98
:1013600002610878704700B58FB0CDE901310021E6
:10137000059105497944CDE903101146684600F00E
:1013800024F90FB000BD0000E5FFFFFFC06800F0CA
:101390008000704710B54248502100F0E6FA4148FD
:1013A000502100F0E2FA4048502100F0DEFA3F48B8
:1013B0003B493C4B3F4A01603D4803603A4810605E
:1013C0005A1CCA64411CD9640121C1643B48344A97
:1013D00039A1784400F020FA20B9384878440A3816
:1013E00000F0BCFA37482F4A35A1784400F014FACF
:1013F00020B9344878440A3800F0B0FA32482A4A12
:101400002FA1784400F008FA20B92F4878440A3810
:1014100000F0A4FA40232248DC000021224600F01C
:10142000D7F920B125487844543800F097FA1D4880
:1014300022464023002100F0CBF920B12148784416
:10144000543800F08BFA184822461023002100F08F
:10145000BFF9002806D01C487844BDE81040563833
:1014600000F07CBA10BD104870B5C06C20F00104CB
:101470000B4800F047FA0B4800F044FA0A4800F025
:1014800041FA09E0E06C20F00105204600F03AFA4C
:10149000204600F073F82C46002CF3D170BD0000FC
:1014A0002000002070000020C00000201400002058
:1014B000180000201C00002072000000B60A000086
:1014C00077000000A20A00008E0A00000EB5CDE9E8
:1014D000000100F005FC029069460120ABBE0EBD84
:1014E00008B5694600900220ABBE08BD1FB58DE867
:1014F000070069460520ABBE04B010BD1FB58DE8DE
:101500000F0069460620ABBEF6E708B569460090B5
:101510000920ABBE08BD1CB5CDE9000169460A2013
:10152000ABBE1CBD704708B5694600900C20ABBE31
:1015300008BD754600F040FAAE46050069465346C0
:1015400020F00700854618B020B5FEF75BFEBDE829
:1015500020404FF000064FF000074FF000084FF01A
:10156000000B21F00701AC46ACE8C009ACE8C009AB
:10157000ACE8C009ACE8C0098D46704770B50446B8
:10158000051F00F01FFA0068002C14BF446870BDEE
:10159000002C18BFA54284BF20466468F8D80168B3
:1015A0000A18AA4218BF456003D12A6805461144AB
:1015B000016028684119A1421CBF6C6070BD616860
:1015C000696021680844286070BD2DE9F041064635
:1015D0000024D6E90170F568804602E04146B8472C
:1015E000641C3046A8470028F8D12046BDE8F081A9
:1015F0002DE9F04705460C46C86820F4201040F459
:101600008000C860800602D5084600F028FBE0682C
:1016100041F282014FF0FF390140022903D02046F8
:1016200000F0C6FAB9E000F42041B1F5004F0FD147
:10163000C00306D56168E06A884200D80846606049
:1016400006E02069E06260606069FFF76CFFA061FE
:10165000A0680022EEB200280FDAE1688B050CD4F6
:10166000C043A06041F490302260E0603046616881
:101670004A1C62600E70BDE8F087E0689046226008
:1016800040F40050E060206968BB6069FFF73DFFEF
:10169000012704F12405A0B1E06810F4407F08D0D0
:1016A000E06900F0DAF9206118B1E06840F4006008
:1016B00016E0E7612561E06820F4407040F4806046
:1016C0000EE0E06900F0C9F900282061F1D0E0687F
:1016D00040F4006010F4407FE06002D140F480707C
:1016E000E06020696060E06825696FF0010AC1056B
:1016F00020D56168E06A884200D80846411B04D0C2
:101700002246284600F05EFAE8BBE068010203D5F5
:10171000E562C4E9015857E005F10101E162616049
:10172000E16940F48030A1F10101C4E902103046C2
:101730002E70A0E7010202D500F480320AE0606852
:10174000411C61600670E0680A2E40F48030E06061
:1017500006D00022E16A6068814203D90B4602E0AC
:101760000122F7E70346E768A3EB05037F0503D4EF
:10177000E7699F4200DDEAB1814200D801460F1AB5
:10178000002BE56200E008E0C4E9015807DD2246CD
:101790001946284600F016FA08B148466BE74FB1E3
:1017A000A069E5626560A0EB0700A061E06840F019
:1017B0001000E060E068000208D56168A069E56299
:1017C000491B08446560A061504654E7304652E723
:1017D00070B5C468A50713D0650211D4B2F5807F37
:1017E00009D0B2F5007F06D0B2F5806F08D1012391
:1017F00000F1240106E05D1E6FF07F46B54201D383
:10180000012070BD0161C361416024F47061114326
:10181000C160002070BD00002DE9F04107460C4674
:101820001646104600F06EF82078611C61280AD038
:10183000722802D077283CD102E00125002405E07F
:101840000225042402E0082448F2020511F8010BE5
:101850002B2806D0622809D011F8010C74280AD070
:101860000BE045F0030544F00204EFE745F0040502
:1018700044F00104EAE744F0100438462146FFF73B
:1018800025FE411C15D00021316171604FF40071BB
:10189000F560F1617061200704D530460222002115
:1018A00000F00AF9F06C40F00100F0643046BDE849
:1018B000F0810020FBE72DE9F04105460E46104C73
:1018C000E06CC10704D0410804D020F00104F7E720
:1018D00022460EE0502000F0C0F807000ED0E06C69
:1018E00047F0010108435021E064384600F03DF81C
:1018F0003A4631462846BDE8F0418DE70020D6E75C
:10190000200000202DE9F04704464FF000094FF079
:10191000FF37C568D4E90486A80707D0204600F041
:101920007BF93046FFF7DCFD002802DA3846BDE8D7
:10193000F087280502D54046FFF720FE48212046C3
:1019400000F013F8E06C20F00100E0644846EEE798
:101950000446AFF300802046FEF73BFC10B500F0D4
:10196000A5F9BDE8104000F09BB94FF0000200B5AA
:10197000134694469646203922BFA0E80C50A0E8B2
:101980000C50B1F12001BFF4F7AF090728BFA0E860
:101990000C5048BF0CC05DF804EB890028BF40F82C
:1019A000042B08BF704748BF20F8022B11F0804F6E
:1019B00018BF00F8012B7047004870471001002045
:1019C00070470000004870471801002070477047BA
:1019D0007047704738B504460A4600206946AFF3A1
:1019E0000080002808BF38BD02460099204600F05C
:1019F000A8F9012038BD012000F0F9B9F8B5AFF31E
:101A00000080054600200C46102000BF0646A8199D
:101A1000A0420DD9324669460020AFF3008007008E
:101A200008BF00F0E4F90098A04218BF0546C419A9
:101A3000FFF7C8FF05600746F01D20F007004619B4
:101A4000284600F077F9B44208BFF8BDA21B314622
:101A50003868BDE8F84000F074B970B50646FFF785
:101A6000B1FF056806F10B0020F00704B4429CBFEB
:101A7000002070BD2B466A68BAB11068A04210D32E
:101A800004F1080188423CBF5068586007D3516890
:101A9000101941601168091B016058601460101D25
:101AA00070BD13465268002AE7D121462846FFF749
:101AB00091FF0028DED170BD2DE9F04104460D46AE
:101AC00016464769C06880072ED03846FFF71DFDCF
:101AD00050BB3EB3012E02D0022E25D104E0204699
:101AE00000F049F905441DE03846FFF71CFDE168A8
:101AF000002841F01001E16005DA204600F058F8B6
:101B00000120BDE8F081C9030BD5E26A61688A4211
:101B100000D91146A26911442269891A814200DD67
:101B200008460544002D01DA0220EAE7E16A606810
:101B3000E268814206D29103E06203D522F40031CB
:101B400041F010024FF0000CA669AE4211DCE16AD0
:101B5000814201D90B4600E003469F192369FF1A11
:101B6000AF4206DD814201D90F4600E007469F42A1
:101B700007D1C4F808C0C4F800C042F02000A56234
:101B80000DE0AD1BE669AE1B8142A66000D9084698
:101B9000C01A281A20605819606022F020000349FA
:101BA0000840E060002084F844C0AAE7BFCFD7FF18
:101BB000C16821F4001141F08001C1600021816001
:101BC000016070472DE9F04781460E4614464FF0FC
:101BD000FF383248D5685769054209D03846A169AF
:101BE000FFF799FC002811DB2C48C0430540E56055
:101BF0002B46324649463846FFF778FCA16920F06B
:101C00000042B21A11440028A16103D02046FFF718
:101C1000CFFF4046BDE8F08770B504460569C06A4D
:101C20006168884200D80846E16821F42011E1602B
:101C3000C90312D5A84208D02246411B2846FFF707
:101C4000C1FF10B14FF0FF3070BD0020E562C4E964
:101C50000150E06820F48030E060002070BD10B5D5
:101C60000446C06820F02000E060A16AA0698842B4
:101C70000DD02046FFF7D0FFE06820F4405040F040
:101C80001000E060A06AA0612069E062606044F238
:101C90004001E0688843E06010BD000010000200D1
:101CA000002801D000F03CB87047000010B5014694
:101CB00002A000F083F8012010BD000053494752F4
:101CC000545245443A2052656469726563743A20FF
:101CD00063616E2774206F70656E3A20000000000B
:101CE00010B5431C02E010F8011B71B18107FAD155
:101CF0004FF0013202C88C1A8C4314EAC211F9D099
:101D0000C01A0A0603D0C01E10BDC01A10BD0A04B6
:101D100001D0801E10BD0902FCD0401E10BD000085
:101D200001491820ABBEFEE72600020000487047BC
:101D30001401002000210160C0E90110704710204B
:101D40007047034640688C46002818BF814284BF14
:101D500003464068F8D818681844884207D00CF148
:101D6000030020F00700001D411A521A0146081D09
:101D70000A60FFF703BC10B50146C268900703D0A4
:101D8000900607D5886A0BE000F040F80121016059
:101D9000881E10BD8B69486818440B69A0EB0300CE
:101DA00091F8443023B191F84510A0EB010010BD2B
:101DB0001103FCD50028FADD401E10BD70B50546A4
:101DC0000C460A2000E06D1C00F018F835B12878A8
:101DD0000028F8D102E0641C00F010F814B120785B
:101DE0000028F8D1BDE870400A2000F007B810B50F
:101DF00000F010F8BDE81040FFF752BF08B5694683
:101E00008DF800000320ABBE08BD000000487047FD
:101E10001001002010B5012805D0002103A0FFF714
:101E2000CDFF012010BD09A1F8E70000534947523A
:101E3000544D454D3A204F7574206F66206865619A
:101E400070206D656D6F7279000000003A20486562
:101E50006170206D656D6F727920636F727275703D
:101E6000746564008A68002A01DCFFF7C1BB521E5A
:101E70008A604A68C0B2531C4B601070704710B53E
:101E8000FFF754FF4FF00001016010BD3A74740079
:101E90003A7474003A747400B81E00080000002000
:101EA000200000006C010008D81E0008200000205F
:101EB0005003000088010008000000000102030434
:101EC00001020304060708090204060800000000D6
:081ED00000000000000000000A
:0400000508000131BD
:00000001FF
