:020000040800F2
:1000000000040020DB010008E9010008EB01000802
:10001000ED010008EF010008F101000800000000F8
:10002000000000000000000000000000F3010008D4
:10003000F501000800000000F7010008F9010008C0
:10004000AF0B0008FB010008FB010008FB010008E2
:10005000FB010008FB010008B9090008FB010008CA
:10006000E10900080B0A0008370A0008FB01000834
:10007000FB010008FB010008FB010008FB01000870
:10008000FB010008FB010008FB010008FB01000860
:10009000FB010008FB010008FB010008FB01000850
:1000A000FB010008FB010008FB010008FB01000840
:1000B000FB010008F10B0008FB010008FB01000830
:1000C000FB010008FB010008FB010008FB01000820
:1000D000FB010008A1060008FB010008FB01000865
:1000E000FB010008FB010008FB010008FB01000800
:1000F000FB010008FB010008FB010008FB010008F0
:10010000FB010008FB010008C70D0008FB01000807
:10011000FB010008FB010008FB010008FB010008CF
:10012000FB010008FB010008FB010008FB010008BF
:1001300000F002F800F03CF80AA090E8000C8244BD
:100140008344AAF10107DA4501D100F031F8AFF29A
:10015000090EBAE80F0013F0010F18BFFB1A43F0A5
:10016000010318470824000028240000103A24BF87
:1001700078C878C1FAD8520724BF30C830C144BF0C
:1001800004680C607047000000230024002500264E
:10019000103A28BF78C1FBD8520728BF30C148BFEA
:1001A0000B6070471FB5AFF300801FBD10B510BDC9
:1001B00001F0DEF81146FFF7F5FF00F031F801F02D
:1001C000FCF8FFF7F3FF00F05DFA000030BF72B6F5
:1001D00062B680F30888704770470B4880470B4928
:1001E00081F308880A480047FEE7FEE7FEE7FEE7DE
:1001F000FEE7FEE7FEE7FEE7FEE7FEE70548064905
:10020000044A064B70470000D9010008400D002049
:100210003101000840050020400D0020400500206D
:1002200038B5092000F0D4F94FF41651482000F0F9
:1002300072FA482000F066F800F0EEFA00F0BBFF1A
:1002400020A20021084600F094FF22A210210020E5
:1002500000F08FFF23A22021002000F08AFF24A2BB
:100260003021002000F085FF23A230213F2000F044
:1002700080FF00F02FFE202422E0012300931023B2
:1002800022463021084600F0CAFE00F023FE601C22
:10029000C4B27E2C00DD20241023009303232246C9
:1002A0003021672000F016FF4FF4967000F05BF8E5
:1002B0001348006808B9012000E0002010490860D8
:1002C000DBE70000302E393627204F4C45442054C0
:1002D0004553540041544F4D40414C49454E5445BF
:1002E0004B000000323031322F392F350000000032
:1002F00041534349493A0000434F44453A00000006
:10030000948121424FF0E021096921F004014FF06E
:10031000E02211610146C21700EB5272D2101F4B4E
:100320001A70194609784FF47A7251439A1C118059
:1003300070471A4A127842434FF0E0235A61002274
:100340009A6101221A6100BF4FF0E022116911F099
:10035000010F02D011F4803FF6D000224FF0E023CD
:100360001A619A6170470D4A921C128842434FF0FD
:10037000E0235A6100229A6101221A6100BF4FF006
:10038000E022116911F0010F02D011F4803FF6D084
:1003900000224FF0E0231A619A61704700000020AC
:1003A000AC4A0A400243AC4B1A607047072323EA69
:1003B00000021202A84B1B1D19684FF6FF031940DB
:1003C000A64B194311434FF0E023C3F80C1D7047AF
:1003D0002DE9F04704460D4616461F463046F117F4
:1003E00006EB91714FEAA109F11706EB91718910A3
:1003F000A6EB810101F0FF0A042101EBCA0000F025
:10040000FF0A3846FFF7D2FFC7F1040004FA00F8EC
:100410000F203841284040EA080808F00F08202E35
:1004200009DA8F4800680121B14008434FF0E0210C
:10043000C1F800010BE08A48001D0168A6F1200206
:100440000120904001434FF0E020C0F8041185489E
:1004500050F8290008FA0AF10143824840F82910AF
:10046000BDE8F08770B50D46CE1701EB9676B31058
:10047000CE1701EB9676B610A1EB8606B606340EC3
:10048000794DAD6945F00105774EB5614FEAB63556
:1004900055F823600F25A540AE43744D45F8236001
:1004A00055F8235000FA04F63543704E46F82350B1
:1004B0006F4D2E6801258D402E436C4D083DC5F8CB
:1004C000006412F0010F09D0694D0C352E6801252A
:1004D0008D402E43654D083DC5F80C6412F0020FA7
:1004E00009D0634D08352E6801258D402E435F4DA0
:1004F000083DC5F8086470BD00B500205A49086180
:10050000C8601420486100208861C86108460068FE
:1005100040F00100086008464068564908405249CA
:10052000486008460068544908404F49086008463A
:10053000006820F4802008600846406820F4FE002F
:1005400048600020886000214FF00060FFF728FF1E
:1005500000BD10B540480830006840F004004FF07E
:10056000E021C1F8100D4048C06940F080503E497C
:10057000C8614248406840F480704049486008467D
:10058000006840F0040008600846006840F002007F
:100590000860FFF71BFE10BD3048001D2E49091DE5
:1005A000086070470146084649062F4A926942F0A2
:1005B00001022D4B9A612D4A083A526822F0E062FE
:1005C0002A4B083B5A601A4652680A435A607047E1
:1005D00030B504460025FFF78FFF2348006840F43C
:1005E00080302149086000BF1F480068400CFBD0E4
:1005F0004FF480601C494860A01EC4B208464068A1
:1006000040EA844048600846406840F480304860D2
:100610001B48006840F03200194908601248006821
:1006200040F080701049086000BF0F480068400E1D
:10063000FBD00D48406840F002000B49486005E0DF
:1006400009484068C0F3870505F00305022DF7D17E
:1006500030BD000080FFFF1F08ED00E00000FA053C
:1006600000E100E000E400E000100240080001406A
:10067000000401400000FFF8FFFFF6FE007000409C
:1006800000200240014600BF704700BF5A4A12884E
:1006900012F0400FFAD0C2B2574B1B1D1A807047A0
:1006A0005549098811F0200F34D05349091D098894
:1006B000C8B25249098811F4004F2BD14F4909881B
:1006C00011F4804F0CD00A2803D000214B4A11802E
:1006D00020E04A49098841F40041484A118019E064
:1006E0000D2806D14549098841F48041434A1180CB
:1006F00010E042490988C1F30D01414A50543F4975
:100700000988491C3D4A118011460988C72901DD25
:100710000021118070472DE9F05F04460D46280145
:1007200001F019F88146374904FB01F001F013F894
:100730008246494600F0D8FE0646304600F0C6FF25
:1007400087B2384601F007F88346314601F0B1F828
:1007500082464FF0834101F003F8814600F0B6FF76
:1007600080463F0107EB080087B22748806940F0C8
:100770000400254988610846806940F4804088610A
:100780002248006820F47F602149C1F80408084627
:10079000D0F8040840F40B60C1F804081A48C06897
:1007A00040F480401849C8600846C06820F4804082
:1007B000C8601848A0F808780F480C30008842F24A
:1007C0000C0108431349A1F80C080846B0F80C08BE
:1007D00040F48070A1F80C080846B0F80C0840F00E
:1007E000200005490C3108800223252203210846F8
:1007F000FFF7EEFDBDE8F09F003801400400002047
:100800001400002040420F00001002400408014084
:1008100000000140003001401B48806940F00800A2
:10082000194988610846806940F04000886117488E
:10083000006820F470001649C1F8000C0846D0F892
:10084000000C40F44010C1F8000C0846D0F80C0C25
:1008500040F02000C1F80C0C0E48D0F8000820F43D
:1008600070000C49C1F800080846D0F8000840F4B0
:100870004010C1F800080846D0F80C0840F02000ED
:10088000C1F80C087047000000100240000C014045
:1008900000000140001001403D48806940F0040024
:1008A0003B4988610846806940F0400088613948CA
:1008B000006820F00F003849C1F800080846D0F859
:1008C000000840F00800C1F80008344800683449C6
:1008D00008403449C1F800083048006832490843EC
:1008E0003049C1F800080846D0F80C0840F01C0058
:1008F000C1F80C08704710B5044614B101202B490B
:1009000008702A48007800282BD02948006858B180
:100910002748001F006838B125480838006818B11A
:100920002448006801281CD10A20FFF71CFD002084
:100930001E4908701E48006808B9012010BD1C48F7
:10094000001F006808B90220F8E719480838006855
:1009500008B90320F2E717480068012815D10420E0
:10096000ECE71348006801280FD11148001F006808
:1009700001280AD10E4808380068012805D10D4821
:10098000006810B90120094908700020D6E700006E
:100990000010024000080140000001400018014022
:1009A000FF00F0FF00100140008808000C0000204C
:1009B000100123420001214210B50A20FFF7D3FCA9
:1009C00045480068012807D14448006808B901205B
:1009D00000E000204149086001204149086010BD45
:1009E00010B50A20FFF7BFFC3E48006848B93B48F5
:1009F0000C38006808B9012000E0002037490C39A4
:100A0000086004203649086010BD10B50A20FFF7C1
:100A1000AAFC3448001D006848B932488C30006890
:100A200008B9012000E000202E498C310860082020
:100A30002B49086010BD10B50A20FFF794FC294827
:100A40000830006898B925480C38006808B90120BA
:100A500000E0002021490C3908602348D0F89401B7
:100A600008B9012000E000201E498C3108601020E8
:100A70001B49086010BD10B5FFF70EFF02220021D0
:100A80000846FFF7EFFC012202210420FFF7EAFCF1
:100A9000012203210420FFF7E5FC0122042108467E
:100AA000FFF7E0FC0223062203211846FFF790FC23
:100AB0000223082219461846FFF78AFC022309225E
:100AC00001211846FFF784FC02230A220021184660
:100AD000FFF77EFC10BD000000012142A0812142F1
:100AE00014040140080123420000234245F25552FC
:100AF000384B1A601A46506091604AF6AA221A6072
:100B00004CF6CC421A6070474AF6AA203149086078
:100B1000704770B504460D4616462F48C06940F42C
:100B200000602D49C8612D49097804EA01002B496C
:100B300008702B48006840EAC6102A49C1F8040C26
:100B4000274800684FF6807108402649C1F8040C18
:100B50000846D0F8040C2843C1F8040C2048001FB4
:100B600000681E49097808431E49C1F8000C084670
:100B7000D0F8000C40F080001949091F08600223DA
:100B8000002203211846FFF723FC00201549C1F875
:100B9000080C0846D0F8040C40F4007010490860B6
:100BA00070BD00F07F010E4A121F1160704700B542
:100BB0000A480078FFF7F5FF00200949091D086081
:100BC0000948D0F8940108B9012000E00020074945
:100BD000086000BD00300040001002400D00002001
:100BE000042C0040002000400000234294012342D6
:100BF000A348008810F0010F07D0A248006808B988
:100C0000012000E000209F4908609D48008820F0F6
:100C100001004FF08041A1F81004704770B5044600
:100C20000D469948C06940F002009749C861944850
:100C30001C3004808804A0F82854B0F80C0440F05C
:100C400001008904A1F80C040846B0F8000440F043
:100C50000100A1F8000402231D2203210120FFF757
:100C6000B7FB70BD884AD26942F00202864BDA6156
:100C70001A46926942F008029A61844A126822F484
:100C80007002834BC3F8002C1A46D2F8002C42F4B1
:100C90003002C3F8002C7C4A926942F001027A4B80
:100CA0009A617B4A526822F44062794B5A601A4634
:100CB000526842F400625A609A03A2F82C04A2F827
:100CC0002814B2F8182442F4E0429B03A3F8182435
:100CD0001A46B2F8182442F40062A3F818241A46FF
:100CE000B2F8202442F01002654B10331A80DA1358
:100CF000D303A3F80024D203B2F8002442F0010287
:100D00005F4B103B1A80704770B504460D465E4835
:100D1000C06940F008005C49C8610846806940F03D
:100D2000040088615B48006820F00F005849C1F852
:100D300000080846D0F8000840F00800C1F8000894
:100D40000846D0F80C08C1F80C088803A0F82C4C11
:100D5000A0F8285CB0F8180C40F001008903A1F855
:100D6000180C0846B0F8180CA1F8180C0846B0F892
:100D7000180CA1F8180C0846B0F8200CA1F8200CAB
:100D80000846B0F8200C40F00100A1F8200C0846FD
:100D9000B0F80C0C40F00200A1F80C0C0846B0F8BA
:100DA0000C0C40F00100A1F80C0C0846B0F8000C47
:100DB00040F00100A1F8000C022332220021184665
:100DC000FFF706FB70BD344908883449097811F0F3
:100DD000800F50D110F0010F1AD03049097811F06E
:100DE000400F15D02D49097801F03F013F290AD164
:100DF0002A49097841F08001284A11704FF6FF71A5
:100E0000274A118004E025490978491C234A1170BA
:100E100010F0020F2FD02149097811F0400F14D0A3
:100E20001E49097841F080011C4A11701A49243189
:100E300009881B4A11804FF08041B1F8201C21F035
:100E40000201154A1032118015E00021134A117079
:100E5000134A11801149097841F040010F4A11707D
:100E600000210D4A143211801107B1F8201C41F005
:100E70000201121F11800021074A118070470000F3
:100E8000100400409401234200100240000C014075
:100E90000000014000080140100C00400E0000203E
:100EA00010000020FF4AD26802F47F420243FD4B4B
:100EB000DA60FD4A11600022FC4BC3F89821FC4B1C
:100EC0001A6001221A60F84B0C331A60F74BC3F812
:100ED0008C21704730B500241CE004F1B001C8B289
:100EE0000021FFF7DFFF00210846FFF7DBFF0021AD
:100EF0001020FFF7D7FF002508E0EE4901EBC50100
:100F0000085D0121FFF7CEFF681CC5B2802DF4DB20
:100F1000601CC4B2082CE0DB30BD00B500218D2080
:100F2000FFF7C0FF00211420FFF7BCFF0021AF2016
:100F3000FFF7B8FF00BD00B500218D20FFF7B2FF1D
:100F400000211020FFF7AEFF0021AE20FFF7AAFF1F
:100F500000BD30B500250CE0002406E00020D54996
:100F600001EBC4014855601CC4B2802CF6DB681C40
:100F7000C5B2082DF0DBFFF7ADFF30BDF0B50025A1
:100F80007F2801DC3F2900DDF0BD0E46CF1701EBC5
:100F90005777FF10C7F10707FBB2CF1701EB577761
:100FA000FF10A1EBC707FCB2C4F107070126BE4042
:100FB000F5B24AB1BF4E06EBC006F65C2E43BD4FFC
:100FC00007EBC007FE5408E0BA4E06EBC006F65C1D
:100FD000AE43B84F07EBC007FE54D5E72DE9F04705
:100FE00004460D4616461F46DDF82090A24610E046
:100FF000A84608E04A4641465046FFF7BFFF08F1C1
:10100000010000F0FF08B845F4DD0AF1010000F02E
:10101000FF0AB245ECDDFFF75DFFBDE8F0872DE983
:10102000F04F04460D4616461F46AB46A6F120007B
:10103000C6B24FF000093EE00C2F07D106EB460088
:101040009D4901EB800010F8098004E09B4800EB0B
:10105000061010F809804FF0000A24E018F0800F05
:1010600005D029462046099AFFF788FF09E009982C
:1010700008B9012000E00020C2B229462046FFF74F
:101080007DFF4FEA48604FEA1068681CC5B2A5EBC7
:101090000B00B84203D15D46601CC4B206E00AF101
:1010A000010000F0FF0ABAF1080FD7DB00BF09F119
:1010B000010000F0FF09B945BEDBBDE8F08F10B5B7
:1010C0000246012000E050430B00A1F10104E1B20F
:1010D000F9D110BD2DE9FF4F81B0044615461E46DB
:1010E0000E9F4FF0000AD0463EE0A6EB0800401EDF
:1010F000C1B20A20FFF7E3FFB5FBF0F00A21B0FB15
:10110000F1F201FB120000F0FF09BAF1000F16D155
:10111000701E404513DDB9F1000F0ED10123BB460F
:1011200007EBD771491001FB0841C8B200933B4659
:1011300020220299FFF773FF12E04FF0010A01230A
:10114000BB4607EBD771491001FB0841C8B20093B9
:101150003B4609F13001CAB20299FFF760FF00BFB8
:1011600008F1010000F0FF08B045BEDB05B0BDE8A6
:10117000F08F78B504460D46164618E07A2C03DD4C
:10118000002405F11000C5B23A2D04DD002004460C
:101190000546FFF7DEFE012300933278102329462F
:1011A0002046FFF73CFF04F10800C4B2761C3078FB
:1011B0000028E3D178BD10B54148806940F01000A7
:1011C0003F4988610846806940F0200088610846F0
:1011D000806940F4807088613A4800683A49084064
:1011E0003049C1F8000437480068384908432D49A0
:1011F000C1F800040846D0F80C0440F00800C1F81B
:101200000C040846D0F80C0440F040002D490C3185
:1012100008604FF03330234908600846C06840F04A
:10122000FF00C8602A484068C0F31300284948609E
:101230000846406827490843254948600846C06871
:1012400040F46040C86000202349C1F8BC0164201C
:10125000FFF789F801202049C1F8BC010021AE2028
:10126000FFF720FE0021D520FFF71CFE00215020B3
:10127000FFF718FE0021A820FFF714FE00213F20F1
:10128000FFF710FE0021D320FFF70CFE00210846D7
:10129000FFF708FE00214020FFF704FE00218D200B
:1012A0001CE00000001001408C812242008022429C
:1012B000B8012442DC000020061B00087A1F000849
:1012C0000010024000140140FF0FFFF00030000347
:1012D000002001400000303300002442FFF7E2FD0F
:1012E00000211420FFF7DEFD00212020FFF7DAFDAA
:1012F00000210220FFF7D6FD0021A120FFF7D2FD3B
:101300000021C020FFF7CEFD0021DA20FFF7CAFD43
:1013100000211220FFF7C6FD00218120FFF7C2FD4A
:101320000021EF20FFF7BEFD0021D920FFF7BAFD15
:101330000021F120FFF7B6FD0021DB20FFF7B2FD11
:1013400000213020FFF7AEFD0021A420FFF7AAFD09
:101350000021A620FFF7A6FD0021AF20FFF7A2FD88
:10136000FFF7F7FD10BD7047704770477047704733
:10137000754600F029F8AE4605006946534620F050
:101380000700854618B020B5FEF738FFBDE82040BD
:101390004FF000064FF000074FF000084FF0000B31
:1013A00021F00701AC46ACE8C009ACE8C009ACE8E4
:1013B000C009ACE8C0098D4670470446AFF3008011
:1013C0002046FEF7FEFE000000487047DC040020C7
:1013D00090EA010F48BF81F0004100F17C82421A7F
:1013E0003CBF801A89184FEAD0524FF07F4C1CEA5C
:1013F000410FA2EBD15318BF9CEA026F00F040806E
:101400004FF0004C4CEA00204CEA012121FA03FC89
:1014100010EB0C0C23D202F1FF325FEA1C2040EBF0
:10142000C25038BF70471CF07F0F4FEA400C18BF06
:10143000BCF17F4F38BF7047C3F12003994008BF0C
:1014400020F00100BCF17F4F38BF7047A0F1C040D1
:101450004FF0FF0141EAD0514FEAC15070474FEAC7
:101460003C00000A40EBC25028BF1CF0FF0F4FEABF
:10147000400CE1D018BFBCF17F4F38BF7047E5E7A3
:101480009CEA026F05D010EA5C0F08BF00F0004034
:101490007047BCEB410F4FEA400228BF9445DFF88C
:1014A00028C0C0F01580AFF30080B2EB410F05D02B
:1014B00012F1807F08BF70470846704790EA010F1D
:1014C00058BF704701487047010000040000C07F0A
:1014D000014800F0CEBA00000000C07F014800F0D3
:1014E000C8BA00000000C07F4FF47F0C1CEAD01285
:1014F0001EBF1CEAD11392EA0C0F93EA0C0F00F006
:10150000A58090EA010F48BF42F4807240F4000CBD
:1015100041F400002CF07F4120F07F4000B5814273
:10152000A2EB03020FF2401CACEB504EC0F10000E6
:101530009EF800E04FEA4E0E00FB0EFC38BF49005B
:101540004FEA2C1C02F5FA020CFB0EF34FEACE1EFA
:101550004FEA112C4FEAC1210EEB635E0EFB0CFC2F
:101560004FEA1C5300FB03114FEA112C4FEA0131E3
:101570000EFB0CFC02F4807E42EB22424FEADC4C74
:1015800000FB0C11C14228BF09184CEB03330129A1
:1015900024BF4EF0020E4EF0804E10EB410F24BFE0
:1015A0004EF0010E4EF0804E08BF4EF0040E4EF08D
:1015B00008015DF804EB43EBC25018BFB2F57C0F95
:1015C00038BF704741EAC07108BF20F00100B2F592
:1015D0007C0F38BF704729D512F0F00F1CBF00F107
:1015E000C04000F000407047008182838485868778
:1015F00088898B8C8D8E8F919293959697999A9CD2
:101600009D9FA0A2A3A5A7A8AAACAEB0B2B3B5B740
:10161000B9BCBEC0C2C5C7C9CCCED1D4D7D9DCDF16
:10162000E2E6E9ECF0F3F7FAFE0000004FEA400CC6
:101630000CF1807CBCF17E4F28BF7047B0F1C040F8
:101640004FF07F404CBF40104008704790EA010FB8
:101650000CEAD11348BF42F48072624538BF63453B
:1016600007D213F47F0F23D080EA010000F000407E
:1016700070474FF0807C1CEB400F98BF1CEB410F74
:10168000DFF840C03FF624AFAFF300804FF0807C1E
:101690001CEB400F02BF1CEB410F0B4870471CEBCB
:1016A000410F0CBF002020F0004040EAC2507047BC
:1016B00012F47F0F04BF0448704742F0FF004FEA66
:1016C000C0507047040000040000C07FC2154FEAFC
:1016D000002318BF43F0004305D4D2F19E020AD381
:1016E00023FA02F070474FEA4001B1F1FE4F02D2F7
:1016F0004FF000007047DFF828C04FEA4001B1F119
:101700007F4F88BF4CF4803C3FF6E8AE1CBF6FEAC9
:10171000E0707047AFF300806FEAE0707047000040
:101720006800020410F0004218BF404242F08042BC
:10173000B0FA80F18840A2EBC15202F1786208BF92
:101740007047410642EB202018BF5FF0806C28BF35
:1017500020F0010070474FF08042FFF7E9BF000022
:101760004FF47F0C1CEAD0121EBF1CEAD11392EA80
:101770000C0F93EA0C0F00F04A8090EA010F48BF6B
:1017800042F480724FF0004C4CEA00204CEA0121F8
:101790001A44A0FB01C3A2F50002BCF1000F18BF60
:1017A00043F0010302F4807CB3F1004F38BF5B00CB
:1017B00042EB2242180A40EBC25028BF13F07F0FC1
:1017C00018BFB2F57C0F38BF704708BF20F001008A
:1017D000B2F57C0F38BF70470BD582F0FF0212F5CF
:1017E000803FC8BF704700F1C040D8BF00F0004044
:1017F000704700F5000C5FEA4C0C48BF7047B0F131
:10180000C0404FF07F404CBF40104008704790EA06
:10181000010F0CEAD11348BF42F48072624538BF11
:10182000634504D280EA010000F0004070474FF0A9
:10183000807C1CEB400F98BF1CEB410F4FF0030C5A
:101840004CF0806C3FF644AEAFF3008012F47F0F93
:101850001FBF13F47F0F42F0FF02D005704701480D
:10186000704700000000C07F10B412F47F0F4FEAF1
:1018700000204FEA012110D1B0FA80F400FA04F000
:10188000A2EB044213F47F0F02F5803218BF41F03F
:10189000004100D010BC18BF604740F00040B1FAD2
:1018A00081F401FA04F1A3EB044310BC03F5803387
:1018B000604780F0004090EA010F7FF590AD81F025
:1018C000004100F008B8000090EA010F48BF81F025
:1018D00000413FF584AD421A3EBF82F00042801ABB
:1018E00089184FEAD0524FF07F4C1CEA410FA2EB0F
:1018F000D15318BF9CEA026F4FD04FF0004C4CEA16
:1019000000204CEA012121FA03FCB0EB0C0C0FD4AF
:1019100012F0FE0F18BF5FEA4C001DD5001240EB1D
:10192000C25038BF70471CF03F0F18BF70470BE024
:10193000A2F101025FEA1C2040EBC25038BF7047A1
:101940001CF07F0F18BF7047C3F12003994014BFEC
:10195000401E20F0010070474FEA122316D00042CB
:1019600004BF002070474FEA9000B0FA80FCA2EB61
:101970000C02CCF1280C60FA0CF093EA122F04BF91
:1019800000EBC25070474FEAC37070475FEADC104B
:1019900008BF70474FEAC37070479CEA026F04D0DB
:1019A00010EA5C0F08BF00207047BCEB410F4FEA04
:1019B000400228BF9445DFF82CC0FFF489ADAFF397
:1019C0000080B2EB410F06D012F1807F08BF704754
:1019D00081F00040704790EA010F48BF704702480D
:1019E00070470000020000040000C07F00F00043C8
:1019F00043EAD05323F48073C3F1C10323F00041C1
:101A000017291FD8C3F1200310FA03F1C3F12003F3
:101A100020F07F4040F4000020FA03F003F0004380
:101A200040EA03000DD00B46590009D318BF401CF3
:101A300006D17FEAE27398BF401C38BF20F0010056
:101A400070477047182903EB912318BF6FF00041CE
:101A5000013168BF03F0004009D6400203F00040A6
:101A600000F1010004BF12F0004F20F001007047A8
:101A700070470CF00F03092B08BF082000F02B80E3
:101A80000A2B0BD0082B18BF704708BF1CF0400F63
:101A90000AD04FF000004FF0000170471CF0400FDB
:101AA00018BF4FF0004070471CF0100F08D020F016
:101AB000704300F07F4242EAD3014FEA437070471F
:101AC00000F0604021F07F4242EA000201F07F40D6
:101AD00040EA727070471CF4801F11D01CF4E02F94
:101AE00003D06FEACC31490070474FF04050EFF31C
:101AF000008222F0704242EA000282F300887047BE
:101B00004FF00000704700000000000000000000DF
:101B10000000000000003F40000000000000000046
:101B20003000400030004000000009000BC03D00C4
:101B30000BC03D00090018C024407FE022403180E6
:101B40000000180024C01B000D803240018003807B
:101B50001C4027401C80074000401000600000002F
:101B60000000000000000000000000001F80204076
:101B700040200000402020401F800000000009009D
:101B800006001F80060009000000040004003F80DA
:101B900004000400000000100060000000000000CD
:101BA0000000040004000400040004000000000021
:101BB00000400000000000000000002001C00600FE
:101BC0003800400000001F802040204020401F803F
:101BD0000000000010403FC000400000000018C09E
:101BE0002140224024401840000010802040244022
:101BF00024401B80000002000D0011003FC0014086
:101C000000003C80244024402440238000001F80AA
:101C1000244024403440038000003000200027C0CE
:101C20003800200000001B802440244024401B80FA
:101C300000001C0022C0224022401F800000000043
:101C400000000840000000000000000000000460E8
:101C5000000000000000000004000A0011002080C5
:101C600040400900090009000900090000000000C7
:101C70004040208011000A0004001800200023408A
:101C80002400180000001F802040274029401F40EA
:101C90000000004007C039000F0001C00040204094
:101CA0003FC0244024401B8000001F802040204073
:101CB00020403080000020403FC0204020401F8056
:101CC000000020403FC024402E4030C00000204093
:101CD0003FC024402E00300000000F001080204044
:101CE00022403380020020403FC0040004003FC077
:101CF0002040204020403FC02040204000000060A5
:101D0000202020203FC02000200020403FC0244051
:101D10000B0030C0204020403FC020400040004029
:101D200000C03FC03C0003C03C003FC0000020405A
:101D30003FC00C4023003FC020001F8020402040B7
:101D400020401F80000020403FC024402400180095
:101D500000001F802140214020E01FA00000204003
:101D60003FC02440260019C0004018C02440244031
:101D7000224031800000300020403FC02040300031
:101D8000000020003F80004000403F8020002000F5
:101D90003E0001C0070038002000380007C03C00AA
:101DA00007C038000000204039C0060039C020407C
:101DB00000002000384007C03840200000003040BC
:101DC00021C02640384020C00000000000007FE015
:101DD000402040200000000070000C000380004004
:101DE00000000000402040207FE0000000000000D4
:101DF0002000400020000000000000100010001033
:101E00000010001000100000000040000000000062
:101E10000000000002800540054003C00040200093
:101E20003FC00440044003800000000003800440E1
:101E300004400640000000000380044024403FC0EE
:101E40000040000003800540054003400000000002
:101E500004401FC0244024402000000002E0055040
:101E600005500650042020403FC00440040003C039
:101E700000400000044027C00040000000000010A7
:101E80000010041027E00000000020403FC0014087
:101E9000070004C00440204020403FC000400040F4
:101EA000000007C0040007C0040003C00000044095
:101EB00007C00440040003C0004000000380044049
:101EC000044003800000041007F004500440038025
:101ED0000000000003800440045007F0001004409C
:101EE00007C0024004000400000000000640054056
:101EF000054004C00000000004001F8004400040B2
:101F00000000040007800040044007C000400400B7
:101F1000070004C0018006000400060001C007009D
:101F200001C006000000044006C0010006C00440D5
:101F300000000410071004E0018006000400000007
:101F4000044005C0064004400000000000000400FA
:101F50007BE040200000000000000000FFF00000D7
:101F60000000000040207BE0040000000000400072
:101F70008000400020002000400000000000000021
:101F80000000000000000000000000000000000051
:101F90001FCC000C00000000000000000800300012
:101FA00060000800300060000000022003FC1E20DA
:101FB000022003FC1E200220000000000E18110465
:101FC0003FFF10840C78000000000F0010840F38D1
:101FD00000C0077818840078000000780F8410C4CF
:101FE00011240E9800E400840008080068007000C6
:101FF00000000000000000000000000000000000E1
:1020000007E01818200440020000000040022004ED
:10201000181807E0000000000000024002400180A4
:102020000FF001800240024000000080008000802C
:102030000FF800800080008000000001000D000EFD
:102040000000000000000000000000000080008090
:10205000008000800080008000800000000C000CE8
:102060000000000000000000000000000006001852
:1020700000600180060018002000000007F008083A
:1020800010041004080807F0000000000804080409
:102090001FFC000400040000000000000E0C1014DF
:1020A0001024104411840E0C000000000C181004C1
:1020B0001104110412880C700000000000E00320DD
:1020C000042408241FFC0024000000001F98108432
:1020D00011041104108810700000000007F0088837
:1020E0001104110418880070000000001C0010008A
:1020F00010FC13001C001000000000000E381144FA
:102100001084108411440E38000000000700088C71
:1021100010441044088807F0000000000000000090
:10212000030C030C00000000000000000000000190
:1021300001060000000000000000000000800140D7
:1021400002200410080810040000022002200220CF
:1021500002200220022002200000000010040808D3
:102160000410022001400080000000000E00120058
:10217000100C106C10800F00000003E00C1813E42A
:10218000142417C4082807D000000004003C03C42E
:102190001C40074000E4001C000410041FFC110454
:1021A000110411040E880070000003E00C181004E4
:1021B0001004100410081C10000010041FFC100470
:1021C00010041004080807F0000010041FFC11049C
:1021D000110417C410040818000010041FFC110497
:1021E000110017C010000800000003E00C181004D4
:1021F000100410441C780040000010041FFC1084E0
:102200000080008010841FFC1004000010041004E3
:102210001FFC100410040000000000030001100166
:1022200010011FFE10001000000010041FFC11041C
:1022300003801464181C1004000010041FFC100418
:10224000000400040004000C000010041FFC1F0028
:1022500000FC1F001FFC1004000010041FFC0C04F5
:10226000030000E010181FFC100007F0080810041D
:1022700010041004080807F0000010041FFC10846C
:102280001080108010800F00000007F00818102444
:102290001024101C080A07F2000010041FFC11048F
:1022A000110011C011300E0C000400000E1C1104AE
:1022B0001084108410441C38000018001000100412
:1022C0001FFC100410001800000010001FF810047C
:1022D0000004000410041FF8100010001E0011E09C
:1022E000001C007013801C0010001FC0103C00E098
:1022F0001F0000E0103C1FC000001004180C163432
:1023000001C001C01634180C100410001C00130486
:1023100000FC13041C00100000000804101C1064D2
:10232000108413041C0410180000000000000000BA
:102330007FFE4002400240020000000030000C001E
:1023400003800060001C0003000000004002400207
:1023500040027FFE0000000000000000000020009E
:10236000400040004000200000000001000100018A
:1023700000010001000100010001000040004000D8
:102380002000000000000000000000000098012470
:1023900001440144014400FC000410001FFC0088BB
:1023A0000104010400880070000000000070008833
:1023B000010401040104008800000000007000888E
:1023C0000104010411081FFC0004000000F801448E
:1023D00001440144014400C800000000010401045C
:1023E0000FFC1104110411001800000000D601298F
:1023F0000129012901C90106000010041FFC008405
:1024000001000100010400FC0004000001041904A3
:1024100019FC00040004000000000000000300019B
:102420000101190119FE0000000010041FFC002426
:10243000004001B4010C010400000000100410046D
:102440001FFC0004000400000000010401FC010462
:10245000010001FC0104010000FC010401FC0084F6
:1024600001000100010400FC0004000000F8010468
:1024700001040104010400F80000010101FF0085CE
:102480000104010400880070000000000070008852
:1024900001040104010501FF00010104010401FC24
:1024A00000840104010001800000000000CC012430
:1024B0000124012401240198000000000100010012
:1024C00007F80104010400000000010001F8000405
:1024D00000040004010801FC0004010001800170F7
:1024E000000C001001600180010001F0010C0030BF
:1024F00001C00030010C01F0010000000104018C5A
:1025000000740170018C010400000101018101715E
:10251000000E001801600180010000000184010C20
:10252000013401440184010C00000000000000009F
:10253000000001003EFC40024002000000000000DC
:102540000000FFFF00000000000000004002400209
:102550003EFC010000000000000000006000800060
:102560008000400040002000200000008C25000872
:1025700000000020140000006C010008A0250008E5
:10258000140000202C0D000088010008000000004D
:102590000000000000000000017F000000000000BB
:0400000508000131BD
:00000001FF
