:10000000F8FF002011040000A5220000A522000036
:10001000A5220000A5220000A5220000A5220000C4
:10002000A5220000A5220000A5220000A5220000B4
:10003000A5220000A5220000A5220000A5220000A4
:10004000A5220000A5220000A5220000A522000094
:10040000FFFFFFFFFFFFFFFFFFFFFFFFFEFFFFFFFD
:1004100062B64FF000004FF000014FF000024FF0C5
:1004200000034FF000044FF000054FF000064FF0BE
:1004300000074FF000084FF000094FF0000A4FF09E
:10044000000B4FF0000C00F0BFFAFEE770B504009F
:100450000D0016003068012802D0022805D00AE0FD
:100460002000C0B27168884705E0B0680470B068C9
:10047000401CB060FFE72868401C286070BD2DE973
:10048000F04704005FF0000A5046A1465FF0000A02
:1004900089F800A019F10109002A1FD0D1F800A0A5
:1004A0005546002D05D15FF0300A89F800A0401CA8
:1004B00038E0002D36D095FBF3FA564603FB165A6A
:1004C0005746002F02D5FF43313700E03037350063
:1004D00089F8007019F10109401CEAE7D1F800A081
:1004E000D446BCF1000F05D15FF0300A89F800A0B6
:1004F000401C17E0BCF1000F14D0BCFBF3FAD64649
:1005000003FB1ECAD046B8F10A0F02D218F1300818
:1005100001E018F13708F44689F8008019F1010963
:10052000401CE7E7BDE8F0872DE9F04104000D002D
:1005300016001F00A046A84507DA3A003100302017
:10054000FFF784FF18F10108F5E7BDE8F0812DE918
:10055000F04104000D0016001F00A046A84507DA70
:100560003A0031002020FFF771FF18F10108F5E78C
:10057000BDE8F0812DE9F24F92B004001500002093
:100580000090129883469BF800000590002800F028
:10059000F2810598252813D005980A2805D0220055
:1005A00000A90598FFF752FF09E0220000A90D20DD
:1005B000FFF74CFF220000A90A20FFF747FFD7E111
:1005C00000208146002003900398002822D11BF1CF
:1005D000010B9BF8000020280ED0232812D02B28D6
:1005E00007D02D2802D0302809D00EE059F001099B
:1005F000EAE759F00209E7E759F00409E4E759F09E
:100600000809E1E759F01009DEE7BBF1010B012011
:100610000390D9E700208246002003900398002829
:1006200013D11BF1010B9BF800000590303809280D
:1006300006D80A20059900FB0A10B0F1300AEDE750
:10064000BBF1010B01200390E8E71BF1010B9BF8C4
:1006500000002E2811D100200390039800280ED10D
:100660001BF1010B9BF800003038092800D8F4E793
:10067000BBF1010B01200390EFE7BBF1010B1BF174
:10068000010B9BF800004C2806D0682802D06C288B
:1006900001D002E003E002E001E0BBF1010B1BF13D
:1006A000010B9BF800000590582875D0622800F0D7
:1006B000D580632800F01D81642813D0692811D0EB
:1006C0006E2800F049816F2800F0BD80702800F08E
:1006D000D080732800F01681752800F0D580782826
:1006E0005AD040E1286806902D1D0A23012206A950
:1006F00009A8FFF7C4FE070009A8381806000698E5
:10070000002803D52D2002907F1C0FE0484680076B
:1007100003D52B2002907F1C08E04846400703D5F4
:10072000202002907F1C01E0002002900020049015
:100730004846000711D50298002804D0220000A9DD
:100740000298FFF783FE01200490230000AA51467F
:100750003800FFF7E9FE574612E04846C0070FD4BD
:10076000230000AA51463800FFF7F1FE0298002846
:1007700004D0220000A90298FFF768FE012004902F
:100780000498002807D10298002804D0220000A96C
:100790000298FFF75BFE98E0286801902D1D10235A
:1007A000002201A909A8FFF76AFE070009A8381866
:1007B0000600002004904846000716D54846C006AB
:1007C0000BD5220000A93020FFF740FE220000A92F
:1007D0007820FFF73BFE01200490230000AA514639
:1007E0003800FFF7A1FE57461BE04846C00718D463
:1007F0004846C00600D5BF1C230000AA5146380059
:10080000FFF7A5FE4846C0060BD5220000A9302000
:10081000FFF71CFE220000A97820FFF717FE012039
:1008200004904846C0060DD5049800280AD122003D
:1008300000A93020FFF70AFE220000A97820FFF768
:1008400005FEBF1C41E0286801902D1D08230022F1
:1008500001A909A8FFF713FE07001FE0286801900F
:100860002D1D0223002201A909A8FFF708FE070099
:1008700014E0286801902D1D1023002201A909A869
:10088000FFF7FDFD070009E0286801902D1D0A23F0
:10089000002201A909A8FFF7F2FD070009A83818EE
:1008A00006004846000707D5230000AA5146380035
:1008B000FFF73AFE574608E04846C00705D4230034
:1008C00000AA51463800FFF742FE3078002806D0D3
:1008D000220000A93078FFF7B9FD761EF5E74846FB
:1008E000C00705D5230000AA51463800FFF72FFEA8
:1008F0003EE0287807902D1D220000A90798FFF7F9
:10090000A5FD35E0286880462D1DB8F1000F22D0E6
:10091000404600F049F807004846C00705D42300C8
:1009200000AA51463800FFF712FE98F80000002890
:1009300008D0220000A998F80000FFF787FD18F101
:100940000108F2E74846C00705D5230000AA514632
:100950003800FFF7FCFD0BE0286808902D1D089873
:100960000099016004E0220000A90598FFF76EFDE0
:100970001BF1010B07E6009813B0BDE8F08F0EB431
:100980007EB50400012000900648019007A80500EC
:100990002A00210000A8FFF7EDFD060030007EBC14
:1009A0005DF810FBC125000001000A000023002AA9
:1009B00001D1002007E01000421C0078002801D07F
:1009C0005B1CF8E71800704780B500F08DFA00F066
:1009D000A7FA00F005FBDFF8E803FFF7D0FFDFF828
:1009E000E4030068DFF8E0134979491CB0FBF1F03B
:1009F0000090DFF8D0030068DFF8CC130979491CB8
:100A0000B0FBF1F3DFF8BC030068DFF8BC13C97872
:100A1000491CB0FBF1F2DFF8AC030168DFF8AC036E
:100A2000FFF7ADFFDFF8A8030078400703D5DFF834
:100A3000A403FFF7A4FFDFF898030078800703D52D
:100A4000DFF89403FFF79BFFDFF884030078C0070B
:100A500003D5DFF88803FFF792FFDFF884030078FF
:100A6000000603D5DFF87C03FFF789FFDFF870038A
:100A70000078400603D5DFF87003FFF780FFDFF84A
:100A800060030078800603D5DFF86003FFF777FF87
:100A9000DFF84C030078400703D5DFF85403FFF775
:100AA0006EFFDFF83C030078800703D5DFF84403CE
:100AB000FFF765FFDFF828030078C00703D5DFF8EC
:100AC0003803FFF75CFFDFF83403FFF758FFDFF868
:100AD0003003DFF83013884204D0DFF82C03FFF72F
:100AE0004EFF03E0DFF82403FFF749FF00F003F8AF
:100AF00000F0A4FAFEE780B5DFF8140300680009EF
:100B000010F0070000280BD0022813D00DD30428C2
:100B100019D014D306281ED019D307281FD022E0DD
:100B2000DFF8F002FFF72BFF20E0DFF8EC02FFF721
:100B300026FF1BE0DFF8E402FFF721FF16E0B848CC
:100B4000FFF71DFF12E0B748FFF719FF0EE0B648A8
:100B5000FFF715FF0AE0B548FFF711FF06E0B448BC
:100B6000FFF70DFF02E0B348FFF709FFA848006850
:100B700010F00F00022812D0042814D0052816D037
:100B8000062818D007281AD008281CD009281ED0FB
:100B90000A2820D00C2822D00E2824D027E0A648EE
:100BA000FFF7EDFE26E0A548FFF7E9FE22E0A448A6
:100BB000FFF7E5FE1EE0A348FFF7E1FE1AE0A248BA
:100BC000FFF7DDFE16E0A148FFF7D9FE12E0A048CE
:100BD000FFF7D5FE0EE09F48FFF7D1FE0AE09E48E2
:100BE000FFF7CDFE06E09D48FFF7C9FE02E09C48F6
:100BF000FFF7C5FE86480068000B10F00F000028C4
:100C000003D0022809D004D30BE09648FFF7B7FEC3
:100C10000AE09548FFF7B3FE06E09448FFF7AFFE01
:100C200002E09348FFF7ABFE00F06AF891480068D5
:100C3000000E10F00F00072806D0092808D00B2856
:100C40000AD00F280CD00FE08B48FFF798FE0EE07B
:100C50008A48FFF794FE0AE08948FFF790FE06E015
:100C60008748FFF78CFE02E08648FFF788FE86483B
:100C70000068000203D58548FFF781FE1EE07D482D
:100C80000068000F002806D0072808D009280AD0DD
:100C90000F280CD00FE07E48FFF771FE0EE07D4874
:100CA000FFF76DFE0AE07C48FFF769FE06E07A4830
:100CB000FFF765FE02E07948FFF761FE78480068BB
:100CC000000B10F00F00052806D0072808D00828D0
:100CD0000AD009280CD00FE07248FFF750FE0EE052
:100CE0007148FFF74CFE0AE07048FFF748FE06E047
:100CF0006F48FFF744FE02E06E48FFF740FE01BD7B
:100D0000F8B56D48032101706C48002101706C48F2
:100D1000002101706B48002101706B4801210170B6
:100D20006A4880210170694800780006FBD5684850
:100D300000780400674800780500674800780600DE
:100D4000664800780700FFB20097F6B23300EDB2B4
:100D50002A00E4B221006248FFF711FE5648032141
:100D60000170564800210170554800210170554816
:100D70000421017054480121017054488021017000
:100D8000524800780006FBD55148007804005148CD
:100D900000780500504800780600504800780700A9
:100DA000FFB20097F6B23300EDB22A00E4B22100A0
:100DB0004C48FFF7E4FD4548FF210170F1BD0000FC
:100DC00004220000AC04FF1F8804FF1FE81F00007E
:100DD00000E00740F0240000C4220000D0250000FD
:100DE00001E007400025000030240000302300000F
:100DF00048230000E0220000DC250000242200003F
:100E00000000FF1F00000000E8250000F42500009E
:100E100024800440142600001C2600002426000024
:100E20002C260000342600003C260000442600004A
:100E30004C26000080210000102500002025000025
:100E400030250000402500005025000060250000EE
:100E5000702500008025000090250000A0250000DE
:100E60002821000044240000582400006C240000C5
:100E7000B82000004C80044060230000782300006C
:100E8000902300004422000050800440B025000060
:100E9000A8230000C0230000D82300006422000023
:100EA000007004408024000094240000A824000066
:100EB000BC240000FC2200000700024006000240A3
:100EC00005000240040002400F0002400000024002
:100ED0000B0002400A0002400900024008000240E4
:100EE000A82100008422000080B500F009F80A481B
:100EF00000884FF6FE7108400749088001BD0000D8
:100F000072B606484CF22051018004484DF6281173
:100F1000018062B670470000002005400E200540A9
:100F20002DE9F8432448254988420DD00020804609
:100F3000B8F5826F08D22048204951F8281040F8AF
:100F4000281018F10108F3E71B4800F091F81C483D
:100F500007001C4806001C480400A01B80464046B1
:100F6000B0F10108002804D030783870761C7F1C5E
:100F7000F5E71648814616480500B5EB090080469E
:100F80004046B0F10108002805D0002089F8000093
:100F900019F10109F4E70F480F49104A531A98460E
:100FA0004346B3F10108002B04D00B780370491CB1
:100FB000401CF5E7BDE8F1830000FF1F00000000C2
:100FC0006004FF1F3020000078200000A804FF1FED
:100FD000B404FF1F1004FF1F4C1F00009C1F0000E3
:100FE00080B51148006850F478500F490860962089
:100FF00000F048F80D4908600C4800684FF47A7119
:1010000048430B4908600A4800680A490968C1F367
:101010000361491CB0FBF1F0074908604FF49641A9
:10102000012000F0A9F901BD38800440AC04FF1F85
:10103000A804FF1F44800440B004FF1F80B562B6BF
:1010400000F0E2FB074A0121142000F068FC064A88
:101050000621012000F025FC044A0721322000F07F
:1010600020FCFEE7E0240000182300000C2600000E
:10107000014908607047000008ED00E0DFF800F06B
:101080001104FF1F38B50400E4B2002C00F0068103
:10109000E4B2200030281ED0322823D0602828D087
:1010A00064282DD06E2832D0782837D07D283CD0C7
:1010B000822841D08C2846D096284BD0A02850D0EA
:1010C000AA2855D0B4285AD0C8285FD0E12864D0C7
:1010D000FA2869D06FE0A048182101709E480021CD
:1010E00041706CE09C48182101709B4801214170BF
:1010F00065E09948182101709748182141705EE019
:1011000095481821017094481A21417057E092487F
:101110001821017090481F21417050E08E48132122
:1011200001708D481821417049E08B4813210170EE
:1011300089481A21417042E087481321017086488E
:101140001C2141703BE084480E210170824812212D
:10115000417034E080480E2101707F4815214170B4
:101160002DE07D480E2101707B481821417026E05A
:1011700079480E21017078481B2141701FE07648A4
:101180000E21017074481E21417018E072480C2134
:10119000017071481C21417011E06F480B210170F2
:1011A0006D481E2141700AE06B480A2101706A48AF
:1011B0001F21417003E06420FFF764FFCAE0664826
:1011C00000218170E4B2332C03D263480021C17046
:1011D00017E0E4B2652C03D25F480121C17010E032
:1011E000E4B2972C03D25C480221C17009E0E4B25A
:1011F000C92C03D258480321C17002E056480F2180
:10120000C17055485449C9780171E4B21A2C03D20F
:1012100051480021417141E0E4B2332C03D24E48E1
:10122000012141713AE0E4B24C2C03D24A48022138
:10123000417133E0E4B2652C03D247480321417188
:101240002CE0E4B27E2C03D243480421417125E016
:10125000E4B2972C03D24048052141711EE0E4B26C
:10126000B02C03D23C480621417117E0E4B2C92CEE
:1012700003D239480721417110E0E4B2E22C03D2D5
:1012800035480821417109E0E4B2FB2C03D2324811
:101290000921417102E030480F2141712E48407808
:1012A000183080B2322148432B490978491C89B251
:1012B00090FBF1F0050029480021017028480068E2
:1012C00050F08050264908602648007850F0800091
:1012D0002449087024489821017024480078C006E9
:1012E000FBD422480078C0F38100C0B20228F8D1B4
:1012F0001948007810F01F001D4908701D48002192
:10130000017015484379144802791348C17812488E
:101310008078FFF7B3FE1048407810F01F0050F0BF
:10132000400014490870114800788006FBD50F482A
:1013300000784006FBD50C48007810F03F000A49C1
:1013400008700A480078C0F38100C0B20328F8D1C1
:101350002800C0B232BD00BF8804FF1F0140064014
:101360003480044008C00740004006400640064064
:101370000440064005400640F0B4C0B2002808D042
:10138000022824D014D304283FD02FD305284BD0D3
:1013900059E06B4E4FF4407737606A4E4FF4407718
:1013A0003760694E366856F48066674F3E604AE0A3
:1013B000664E4FF440773760654E4FF440773760A4
:1013C000614E366856F400665F4F3E603BE0614E0A
:1013D0004FF440773760604E4FF4407737605A4E95
:1013E000366856F48056584F3E602CE05B4E4FF402
:1013F000407737605A4E4FF440773760524E366828
:1014000056F40056504F3E601DE0564E4FF4407764
:101410003760554E4FF440773760544E366856F477
:101420008066524F3E600EE0514E4FF44077376079
:10143000504E4FF4407737604C4E366856F4006695
:101440004A4F3E60FFE7C0B24B4E56F82060F67838
:1014500016F0F306C0B2484F57F82070FE70C0B2C5
:10146000454E56F820600027B770C0B2002801D161
:10147000012600E00026C0B2012801D1012700E0CA
:1014800000273E43F6B2002E06D03C4E36684FF49D
:101490007A777E43350005E0394E36684FF47A7727
:1014A0007E4335000E01B5FBF6F63200C0B2324E77
:1014B00056F82060367816F0E006340092B2160A2C
:1014C00016F01F062643C0B22B4F57F820703E700F
:1014D000C0B2294E56F8206072706E010F01B6FB43
:1014E000F7F692B2B6EB42163300C0B2224E56F86F
:1014F0002060B67A16F0E0063400C0B21E4E56F8F0
:10150000206013F01F072743B772C0B21A4E56F877
:101510002060F67856F00C06C0B2174F57F82070CE
:10152000FE70F0BC7047C0B2134A52F82020127906
:101530001206F8D5C0B2104A52F82020D171704777
:1015400018C004401CC00440348004400CB0044067
:1015500010B004400CC0044008C0044040B0044037
:1015600044B0044064D0044060D00440288004406B
:1015700024D0044020D004409004FF1FA804FF1F83
:10158000B004FF1F80B5002301221821002000F0C5
:1015900067FA002301221921002000F061FA0023DC
:1015A00001221A21002000F05BFA002301221B21F6
:1015B000002000F055FA01BD38B5040008250122CD
:1015C0001B21002000F0A8FA00221821002000F0C2
:1015D000A3FA2800451EC0B2002819D0200605D560
:1015E00001221921002000F097FA04E000221921BD
:1015F000002000F091FA01221821002000F08CFA5E
:1016000000BF00221821002000F086FA6400E0E705
:1016100031BD000038B50400082500221B21002040
:1016200000F07AFA00221821002000F075FA280054
:10163000451EC0B2002819D0200605D50122192167
:10164000002000F069FA04E000221921002000F0D7
:1016500063FA01221821002000F05EFA00BF002288
:101660001821002000F058FA6400E0E731BD38B5D9
:1016700004000D00B5F15000C0B2FFF7CBFFE4B29B
:10168000200950F01000C0B2FFF7C4FF14F00F00A3
:10169000FFF7C0FF31BD70B5040000200500EDB2BA
:1016A000082D17D2B5F15000C0B2FFF7B3FF0020EC
:1016B000FFF7B0FF1020FFF7ADFF00200600F6B2E5
:1016C000802E05D22000C0B2FFF776FF761CF6E729
:1016D0006D1CE4E770BD002809D041F6132211000B
:1016E0000A00511E92B2002AFAD1401EF3E7704759
:1016F00010B504002020FFF78DFF2000C0B2FFF7D7
:1017000089FF10BD10B5040054F04000C0B2FFF7CF
:1017100081FF10BD10B504008120FFF77BFF200082
:10172000C0B2FFF777FF10BD10B504008D20FFF7A2
:1017300071FF54F01000C0B2FFF76CFF10BD10B580
:10174000040054F0A000C0B2FFF764FF10BD10B554
:10175000040054F0A400C0B2FFF75CFF10BD10B548
:10176000040054F0A600C0B2FFF754FF10BD10B53E
:101770000400A820FFF74EFF2000C0B2FFF74AFF89
:1017800010BD10B5040054F0AE00C0B2FFF742FF28
:1017900010BD10B5040054F0C000C0B2FFF73AFF0E
:1017A00010BD10B50400D320FFF734FF2000C0B2F5
:1017B000FFF730FF10BD10B50400D520FFF72AFF5A
:1017C0002000C0B2FFF726FF10BD10B50400D920DD
:1017D000FFF720FF2000C0B2FFF71CFF10BD10B5BF
:1017E0000400DA20FFF716FF54F00200C0B2FFF742
:1017F00011FF10BD10B50400DB20FFF70BFF200028
:10180000C0B2FFF707FF10BD80B5FFF7BBFE012296
:101810001821002000F080F900221A21002000F099
:101820007BF93220FFF757FF01221A21002000F038
:1018300073F90020FFF7A5FF8020FFF7BCFF3F20D2
:10184000FFF795FF0020FFF7ACFF0020FFF75AFFDE
:101850000420FFF769FF0220FFF74AFF0120FFF78E
:101860006EFF0820FFF795FF1020FFF7B8FFCF208D
:10187000FFF750FFF120FFF7A8FF4020FFF7BAFF66
:101880000020FFF764FF0020FFF769FF0120FFF74A
:1018900078FF0020FFF7FFFE00210020FFF7E7FEA2
:1018A00001BD2DE9F84304000D00160000275FF08C
:1018B00000085FF000095FFA89F919F806000028AE
:1018C0002BD05FFA89F919F8060020380700E4B236
:1018D0007F2C02D3002004006D1C2900C9B2200017
:1018E000C0B2FFF7C4FE002080465FFA88F8B8F166
:1018F000060F0ED25FFA88F8FFB20620DFF8541107
:1019000000FB071018F80000FFF756FE18F1010859
:10191000EBE7A41D19F10109CDE7BDE8F1832DE93D
:10192000F84304000D00160000275FF000085FF088
:1019300001095FFA88F818F80600002800F088808E
:101940000020070001208146FFB2DFF80C01385C5F
:1019500080281DD3FFB2DFF80001385C5FFA88F8F9
:1019600018F80610884211D1FFB2DFF8EC003818E1
:1019700040785FFA88F818EB06014978884205D16B
:10198000FFB20E2000FB07F0814601E0BF1CDBE741
:10199000E4B2732C02D3002004006D1C1FFA89F9F5
:1019A000B9F1010F30D02900C9B22000C0B2FFF751
:1019B0005EFE00200700FFB20E2F0BD21FFA89F93E
:1019C000DFF8980019F80000FFF7F6FD19F101099A
:1019D0007F1CF0E7691CC9B22000C0B2FFF747FEC8
:1019E00000200700FFB20E2F0BD21FFA89F9DFF893
:1019F0006C0019F80000FFF7DFFD19F101097F1CE9
:101A0000F0E718F1020821E02900C9B22000C0B2B5
:101A1000FFF72DFE00200700FFB20E2F04D200209A
:101A2000FFF7CAFD7F1CF7E7691CC9B22000C0B2EE
:101A3000FFF71DFE00200700FFB20E2F04D200208A
:101A4000FFF7BAFD7F1CF7E718F101080E3470E7C5
:101A5000BDE8F1837C1C0000D0240000A41E00001F
:101A6000F8B504000D0016001F00EDB2202D02D2C3
:101A7000FFB2022F03D324213E4800F081F8EDB2DB
:101A8000E4B23D4850F82400F6B24FF4807131437F
:101A900040F82510F00705D5F6B2032E02D0F6B2B5
:101AA000132E0DD1E4B2354850F8240040690121CD
:101AB000A9408843E4B2314951F8241048612AE032
:101AC000E4B22E4850F8240040690121A94008439F
:101AD000E4B22A4951F824104861FFB2012F0DD118
:101AE000E4B2264850F8240000680121A9400843C8
:101AF000E4B2224951F8241008600CE0E4B21F4817
:101B000050F8240000680121A9408843E4B21B4931
:101B100051F824100860F1BD70B504000D001600E6
:101B2000EDB2202D02D2F6B2022E03D34B21114882
:101B300000F026F8F6B2012E0DD1E4B20F4850F8AD
:101B4000240000680121A9400843E4B20B4951F880
:101B5000241008600CE0E4B2084850F82400006843
:101B60000121A9408843E4B2044951F824100860D7
:101B700070BD0000782000007404FF1F6004FF1F88
:101B800038B504000D0000F00BF82A0021000348CE
:101B9000FEF7F5FE00F02DF8F7E700BF9C1F0000F0
:101BA00080B5012301220C210320FFF759FF0123F7
:101BB00001220D210320FFF753FF012301220E21F3
:101BC0000320FFF74DFF012301220F210320FFF720
:101BD00047FF01BD1E4AD2681268012383409A4321
:101BE000C9B211F0010383401A43194BDB681A6034
:101BF000704710B5012301220C210320FFF730FFAD
:101C0000012301220D210320FFF72AFF01230122D6
:101C10000E210320FFF724FF012301220F210320BF
:101C2000FFF71EFF0C200400E4B2102C0ED200219E
:101C30002000C0B2FFF7CEFF642000F00BF80121B6
:101C40002000C0B2FFF7C6FF641CEDE710BD000026
:101C50006004FF1F0023190081420BD2064B1B6852
:101C60001A00002A04D000BF002A01D0521EF8E753
:101C7000491CF1E770470000B004FF1F000000009E
:101C800000000000002F0000000007000700001403
:101C90007F147F1400242A7F2A1200626408132311
:101CA00000364955225000000503000000001C22A8
:101CB0004100000041221C000014083E08140008E6
:101CC000083E0808000000A0600000080808080896
:101CD000000060600000002010080402003E51492E
:101CE000453E0000427F40000042615149460021CC
:101CF00041454B31001814127F10002745454539E6
:101D0000003C4A4949300001710905030036494940
:101D1000493600064949291E0000363600000000F9
:101D20005636000000081422410000141414141444
:101D300000004122140800020151090600324959ED
:101D4000513E007C1211127C007F49494936003E09
:101D500041414122007F4141221C007F49494941C4
:101D6000007F09090901003E4149497A007F0808BE
:101D7000087F0000417F4100002040413F01007F7B
:101D800008142241007F40404040007F020C027F47
:101D9000007F0408107F003E4141413E007F090959
:101DA0000906003E4151215E007F0919294600467F
:101DB000494949310001017F0101003F4040403F56
:101DC000001F2040201F003F4038403F00631408A0
:101DD000146300070870080700615149454300007B
:101DE0007F414100000204081020000041417F00B3
:101DF0000004020102040040404040400000010293
:101E00000400002054545478007F4844443800387B
:101E10004444442000384444487F00385454541803
:101E200000087E0901020018A4A4A47C007F080415
:101E300004780000447D4000004080847D00007FE5
:101E4000102844000000417F4000007C0418047802
:101E5000007C0804047800384444443800FC2424FE
:101E600024180018242418FC007C080404080048E6
:101E70005454542000043F444020003C4040207C07
:101E8000001C2040201C003C4030403C00442810F6
:101E90002844001CA0A0A07C004464544C441414AA
:101EA000141414144030FC03045454555654545420
:101EB000040000001F00001F09090909091F000094
:101EC000080AEAAAAEAAABAAAEAAEA0A0800100C4F
:101ED000030E1212161A121A03041800F848484882
:101EE00048FF48484848F800000007020202020F75
:101EF0001212121213100C00404141414141F149AC
:101F00004543414040000000000008100F00000061
:101F100000000000129252FF51918092A480FF4075
:101F200040000201001F0000000000001F00000030
:101F30000888FF480824E4243F24A464040009100E
:101F40000F0010100805020508101000F0B4114E23
:101F5000366834000F4E366856F47F060D4F3E60EB
:101F60000E0616F0706656EA0076170517F470072D
:101F70003E431F0417F470273E43074F3E60002680
:101F80003500EDB29D4201D26D1CFAE7014E34607E
:101F9000F0BC704700F0014044800440B6CFD1D47B
:101FA000B7A2C9FAD4DA2573CEC4BCFEB5C4B5DA7B
:101FB0002564D0D0A3A10AB6CFD1D4CCF5BCFEB253
:101FC000BBB3C9C1A2A3ACC7EBBCECB2E2B4EDCECB
:101FD000F3D4ADD2F2A1A309A1AAA1AA20627920CB
:101FE000D2B0BBF00A0A0000C4DABACBC6B5C2CA86
:101FF000A3BA25644D487A09D7DCCFDFC6B5C2CA7B
:1020000020A3BA25644D487A0A666C6578C6B5C2C5
:10201000CAA3BA25644D487A2009666C617368C604
:10202000B5C2CAA3BA25644D487A0A0A0000000066
:1020300000F00F4040F00F4080F00F40C0F00F4024
:1020400000F10F400090044000A0044000B00440A4
:1020500000C0044000D004400B1F00000009000035
:1020600000A0064000B0064000C0064000D0064078
:1020700000A00E4000B00E40453A5C776F726B5C7A
:10208000B7C9CBBCBFA8B6FB5CD5FDCABDCAD4D30B
:10209000C3B0E65C4F4C4544206472697665725C5F
:1020A0007372635C647269766572735C6770696F82
:1020B0005C6770696F2E63000A54686973207665E7
:1020C0007273696F6E206F6620736F6674776172CA
:1020D0006520646F65736E2774207265636F676E29
:1020E000697A6520746865207265766973696F6EB8
:1020F00020636F64652E00000A2A2A2A2A64656616
:1021000061756C745F69737220656E746572656465
:10211000206F6E20766563746F722025642A2A2AE8
:102120002A2A0D0A0A0000000A556E7265636F675D
:102130006E697A6564204B696E657469732070619D
:10214000636B61676520636F64652E20202020200B
:102150002000000010B5084979441C31074C7C442C
:102160001A34A14206D0081D0A6851188847014652
:10217000A142F8D110BD00BF7C0000008800000023
:102180000A556E7265636F676E697A6564204B6984
:102190006E657469732066616D696C79206465761B
:1021A0006963652E0A000000466C617368207061E7
:1021B00072616D657465722076657273696F6E20E9
:1021C00025642E25642E25642E25640A0000000057
:1021D00050F8041B61B150F8042BD30744BFA9F198
:1021E00001039A18002342F8043B091FFAD1EFE7D4
:1021F00070470000DDFFFFFF0C000000A804FF1F78
:10220000000000000A0A0909D2B0BBF06B696E65D4
:10221000746973BACBD0C4B0E5B2E2CAD4B3CCD03F
:10222000F20A00000AD2B0BBF04B696E65746973A4
:10223000BFAAB7A2B0E5C6F4B6AFB7BDCABDA3BAD0
:1022400000000000455252212120556E64656669E8
:102250006E656420502D666C6173682073697A65C1
:102260000A000000455252212120556E64656669BE
:102270006E656420466C65784E564D2073697A65AC
:102280000A000000466C6173682076657273696F9E
:102290006E2049442025642E25642E25642E256455
:1022A0000A00000080B5FFF77BFCFFF7A2FC0348A3
:1022B0000178C9B20248FEF762FB01BD04ED00E0FF
:1022C000F8200000436F7265204C6F636B757020BF
:1022D0004576656E742052657365740A00000000CF
:1022E0004C6F772D766F6C746167652044657465FB
:1022F00063742052657365740A00000045525221D0
:102300002120556E646566696E65642052414D20DA
:1023100073697A650A0A0000687474703A2F2F781E
:1023200079647A3132332E74616F62616F0000001C
:102330005761746368646F6728434F502920526562
:102340007365740A000000004C6F7373206F662081
:10235000436C6F636B2052657365740A0000000064
:10236000313238206B4279746573206F6620502DAE
:10237000666C617368090000323536206B427974EF
:102380006573206F6620502D666C617368090000CC
:10239000353132206B4279746573206F6620502D81
:1023A000666C61736809000030206B427974657354
:1023B000206F6620466C65784E564D0A000000007E
:1023C000313238206B4279746573206F6620466C19
:1023D00065784E564D0A0000323536206B427974CE
:1023E0006573206F6620466C65784E564D0A000076
:1023F00000F009F8002801D0FFF7ACFE0020FEF73E
:102400001DFE00F002F80120704700F001B8000046
:102410000746384600F002F8FBE7000080B5C046EA
:10242000C046024A11001820ABBEFBE7260002009E
:1024300045787465726E616C2050696E20526573C8
:1024400065740A0053696C69636F6E20726576204B
:10245000312E302020200A0053696C69636F6E2092
:1024600072657620312E3120200A000053696C6994
:10247000636F6E2072657620312E3220200A0000B4
:102480003332206B4279746573206F662052414D60
:102490000A0A00003634206B4279746573206F6637
:1024A0002052414D0A0A00003936206B427974658A
:1024B00073206F662052414D0A0A000031323820E5
:1024C0006B4279746573206F662052414D0A0A0091
:1024D000D0C5D3FEB5E7D7D3BFC6BCBC0000000053
:1024E000D0C5D3FEB5E7D7D3BFC6BCBC0000000043
:1024F000536F6674776172652052657365740A0064
:10250000506F7765722D6F6E2052657365740A0087
:10251000333270696E20202020202020000000002F
:10252000343870696E202020202020200000000018
:10253000363470696E20202020202020000000000A
:10254000383070696E2020202020202000000000FC
:10255000383170696E2020202020202000000000EB
:1025600031303070696E20202020202000000000D3
:1025700031303470696E20202020202000000000BF
:1025800031343470696E20202020202000000000AB
:1025900031393670696E2020202020200000000094
:1025A00032353670696E2020202020200000000087
:1025B000502D666C617368206F6E6C790A000000A4
:1025C00010B504002100C9B20120FEF7ACFF10BD18
:1025D0004A5441472052657365740A004C4C575564
:1025E0002052657365740A00666C617368C6F4B640
:1025F000AF0A00005352414DC6F4B6AF0A000000C6
:10260000C046C046C046C046FFF7F2FE2E636F6D5F
:10261000000000000A4B31302D0000000A4B323020
:102620002D0000000A4B33302D0000000A4B3430DF
:102630002D0000000A4B36302D0000000A4B3730C9
:102640002D0000000A4B35302D0000000A4B3533B9
:042650002D00000059
:0400000500002601D0
:00000001FF
